{
  "contractName": "Association",
  "abi": [
    {
      "constant": true,
      "inputs": [
        {
          "name": "",
          "type": "uint256"
        }
      ],
      "name": "proposals",
      "outputs": [
        {
          "name": "recipient",
          "type": "address"
        },
        {
          "name": "amount",
          "type": "uint256"
        },
        {
          "name": "description",
          "type": "string"
        },
        {
          "name": "votingDeadline",
          "type": "uint256"
        },
        {
          "name": "executed",
          "type": "bool"
        },
        {
          "name": "proposalPassed",
          "type": "bool"
        },
        {
          "name": "numberOfVotes",
          "type": "uint256"
        },
        {
          "name": "proposalHash",
          "type": "bytes32"
        }
      ],
      "payable": false,
      "stateMutability": "view",
      "type": "function"
    },
    {
      "constant": false,
      "inputs": [
        {
          "name": "proposalNumber",
          "type": "uint256"
        },
        {
          "name": "transactionBytecode",
          "type": "bytes"
        }
      ],
      "name": "executeProposal",
      "outputs": [],
      "payable": false,
      "stateMutability": "nonpayable",
      "type": "function"
    },
    {
      "constant": true,
      "inputs": [],
      "name": "sharesTokenAddress",
      "outputs": [
        {
          "name": "",
          "type": "address"
        }
      ],
      "payable": false,
      "stateMutability": "view",
      "type": "function"
    },
    {
      "constant": true,
      "inputs": [],
      "name": "numProposals",
      "outputs": [
        {
          "name": "",
          "type": "uint256"
        }
      ],
      "payable": false,
      "stateMutability": "view",
      "type": "function"
    },
    {
      "constant": false,
      "inputs": [
        {
          "name": "sharesAddress",
          "type": "address"
        },
        {
          "name": "minimumSharesToPassAVote",
          "type": "uint256"
        },
        {
          "name": "minutesForDebate",
          "type": "uint256"
        }
      ],
      "name": "DatabaseAssociation",
      "outputs": [],
      "payable": true,
      "stateMutability": "payable",
      "type": "function"
    },
    {
      "constant": false,
      "inputs": [
        {
          "name": "sharesAddress",
          "type": "address"
        },
        {
          "name": "minimumSharesToPassAVote",
          "type": "uint256"
        },
        {
          "name": "minutesForDebate",
          "type": "uint256"
        }
      ],
      "name": "changeVotingRules",
      "outputs": [],
      "payable": false,
      "stateMutability": "nonpayable",
      "type": "function"
    },
    {
      "constant": true,
      "inputs": [],
      "name": "debatingPeriodInMinutes",
      "outputs": [
        {
          "name": "",
          "type": "uint256"
        }
      ],
      "payable": false,
      "stateMutability": "view",
      "type": "function"
    },
    {
      "constant": true,
      "inputs": [],
      "name": "minimumQuorum",
      "outputs": [
        {
          "name": "",
          "type": "uint256"
        }
      ],
      "payable": false,
      "stateMutability": "view",
      "type": "function"
    },
    {
      "constant": true,
      "inputs": [],
      "name": "owner",
      "outputs": [
        {
          "name": "",
          "type": "address"
        }
      ],
      "payable": false,
      "stateMutability": "view",
      "type": "function"
    },
    {
      "constant": false,
      "inputs": [
        {
          "name": "_from",
          "type": "address"
        },
        {
          "name": "_value",
          "type": "uint256"
        },
        {
          "name": "_token",
          "type": "address"
        },
        {
          "name": "_extraData",
          "type": "bytes"
        }
      ],
      "name": "receiveApproval",
      "outputs": [],
      "payable": false,
      "stateMutability": "nonpayable",
      "type": "function"
    },
    {
      "constant": false,
      "inputs": [
        {
          "name": "beneficiary",
          "type": "address"
        },
        {
          "name": "weiAmount",
          "type": "uint256"
        },
        {
          "name": "jobDescription",
          "type": "string"
        },
        {
          "name": "transactionBytecode",
          "type": "bytes"
        }
      ],
      "name": "newProposal",
      "outputs": [
        {
          "name": "proposalID",
          "type": "uint256"
        }
      ],
      "payable": false,
      "stateMutability": "nonpayable",
      "type": "function"
    },
    {
      "constant": false,
      "inputs": [
        {
          "name": "beneficiary",
          "type": "address"
        },
        {
          "name": "etherAmount",
          "type": "uint256"
        },
        {
          "name": "jobDescription",
          "type": "string"
        },
        {
          "name": "transactionBytecode",
          "type": "bytes"
        }
      ],
      "name": "newProposalInEther",
      "outputs": [
        {
          "name": "proposalID",
          "type": "uint256"
        }
      ],
      "payable": false,
      "stateMutability": "nonpayable",
      "type": "function"
    },
    {
      "constant": false,
      "inputs": [
        {
          "name": "proposalNumber",
          "type": "uint256"
        },
        {
          "name": "supportsProposal",
          "type": "bool"
        }
      ],
      "name": "vote",
      "outputs": [
        {
          "name": "voteID",
          "type": "uint256"
        }
      ],
      "payable": false,
      "stateMutability": "nonpayable",
      "type": "function"
    },
    {
      "constant": true,
      "inputs": [
        {
          "name": "proposalNumber",
          "type": "uint256"
        },
        {
          "name": "beneficiary",
          "type": "address"
        },
        {
          "name": "weiAmount",
          "type": "uint256"
        },
        {
          "name": "transactionBytecode",
          "type": "bytes"
        }
      ],
      "name": "checkProposalCode",
      "outputs": [
        {
          "name": "codeChecksOut",
          "type": "bool"
        }
      ],
      "payable": false,
      "stateMutability": "view",
      "type": "function"
    },
    {
      "constant": true,
      "inputs": [],
      "name": "sharesAddressA",
      "outputs": [
        {
          "name": "",
          "type": "address"
        }
      ],
      "payable": false,
      "stateMutability": "view",
      "type": "function"
    },
    {
      "constant": false,
      "inputs": [
        {
          "name": "newOwner",
          "type": "address"
        }
      ],
      "name": "transferOwnership",
      "outputs": [],
      "payable": false,
      "stateMutability": "nonpayable",
      "type": "function"
    },
    {
      "payable": true,
      "stateMutability": "payable",
      "type": "fallback"
    },
    {
      "anonymous": false,
      "inputs": [
        {
          "indexed": false,
          "name": "proposalID",
          "type": "uint256"
        },
        {
          "indexed": false,
          "name": "recipient",
          "type": "address"
        },
        {
          "indexed": false,
          "name": "amount",
          "type": "uint256"
        },
        {
          "indexed": false,
          "name": "description",
          "type": "string"
        }
      ],
      "name": "ProposalAdded",
      "type": "event"
    },
    {
      "anonymous": false,
      "inputs": [
        {
          "indexed": false,
          "name": "proposalID",
          "type": "uint256"
        },
        {
          "indexed": false,
          "name": "position",
          "type": "bool"
        },
        {
          "indexed": false,
          "name": "voter",
          "type": "address"
        }
      ],
      "name": "Voted",
      "type": "event"
    },
    {
      "anonymous": false,
      "inputs": [
        {
          "indexed": false,
          "name": "proposalID",
          "type": "uint256"
        },
        {
          "indexed": false,
          "name": "result",
          "type": "uint256"
        },
        {
          "indexed": false,
          "name": "quorum",
          "type": "uint256"
        },
        {
          "indexed": false,
          "name": "active",
          "type": "bool"
        }
      ],
      "name": "ProposalTallied",
      "type": "event"
    },
    {
      "anonymous": false,
      "inputs": [
        {
          "indexed": false,
          "name": "newMinimumQuorum",
          "type": "uint256"
        },
        {
          "indexed": false,
          "name": "newDebatingPeriodInMinutes",
          "type": "uint256"
        },
        {
          "indexed": false,
          "name": "newSharesTokenAddress",
          "type": "address"
        }
      ],
      "name": "ChangeOfRules",
      "type": "event"
    },
    {
      "anonymous": false,
      "inputs": [
        {
          "indexed": false,
          "name": "sender",
          "type": "address"
        },
        {
          "indexed": false,
          "name": "amount",
          "type": "uint256"
        }
      ],
      "name": "receivedEther",
      "type": "event"
    },
    {
      "anonymous": false,
      "inputs": [
        {
          "indexed": false,
          "name": "_from",
          "type": "address"
        },
        {
          "indexed": false,
          "name": "_value",
          "type": "uint256"
        },
        {
          "indexed": false,
          "name": "_token",
          "type": "address"
        },
        {
          "indexed": false,
          "name": "_extraData",
          "type": "bytes"
        }
      ],
      "name": "receivedTokens",
      "type": "event"
    },
    {
      "anonymous": false,
      "inputs": [
        {
          "indexed": true,
          "name": "previousOwner",
          "type": "address"
        },
        {
          "indexed": true,
          "name": "newOwner",
          "type": "address"
        }
      ],
      "name": "OwnershipTransferred",
      "type": "event"
    }
  ],
  "bytecode": "0x6060604052336000806101000a81548173ffffffffffffffffffffffffffffffffffffffff021916908373ffffffffffffffffffffffffffffffffffffffff160217905550611d4e806100536000396000f3006060604052600436106100e6576000357c0100000000000000000000000000000000000000000000000000000000900463ffffffff168063013cf08b14610153578063237e94921461027957806327ebcf0e146102df578063400e3949146103345780634a635d631461035d578063520910471461039d57806369bd3436146103e85780638160f0b5146104115780638da5cb5b1461043a5780638f4ffcb11461048f578063b1050da514610533578063b9f256cd1461060f578063c9d27afe146106eb578063eceb29451461072d578063efb25948146107d3578063f2fde38b14610828575b7fa398b89ba344a0b23a0b9de53db298b2a1a868b396c1878b7e9dcbafecd49b133334604051808373ffffffffffffffffffffffffffffffffffffffff1673ffffffffffffffffffffffffffffffffffffffff1681526020018281526020019250505060405180910390a1005b341561015e57600080fd5b6101746004808035906020019091905050610861565b604051808973ffffffffffffffffffffffffffffffffffffffff1673ffffffffffffffffffffffffffffffffffffffff16815260200188815260200180602001878152602001861515151581526020018515151515815260200184815260200183600019166000191681526020018281038252888181546001816001161561010002031660029004815260200191508054600181600116156101000203166002900480156102635780601f1061023857610100808354040283529160200191610263565b820191906000526020600020905b81548152906001019060200180831161024657829003601f168201915b5050995050505050505050505060405180910390f35b341561028457600080fd5b6102dd600480803590602001909190803590602001908201803590602001908080601f016020809104026020016040519081016040528093929190818152602001838380828437820191505050505050919050506108f1565b005b34156102ea57600080fd5b6102f2610d55565b604051808273ffffffffffffffffffffffffffffffffffffffff1673ffffffffffffffffffffffffffffffffffffffff16815260200191505060405180910390f35b341561033f57600080fd5b610347610d7b565b6040518082815260200191505060405180910390f35b61039b600480803573ffffffffffffffffffffffffffffffffffffffff16906020019091908035906020019091908035906020019091905050610d81565b005b34156103a857600080fd5b6103e6600480803573ffffffffffffffffffffffffffffffffffffffff16906020019091908035906020019091908035906020019091905050610dd2565b005b34156103f357600080fd5b6103fb610f28565b6040518082815260200191505060405180910390f35b341561041c57600080fd5b610424610f2e565b6040518082815260200191505060405180910390f35b341561044557600080fd5b61044d610f34565b604051808273ffffffffffffffffffffffffffffffffffffffff1673ffffffffffffffffffffffffffffffffffffffff16815260200191505060405180910390f35b341561049a57600080fd5b610531600480803573ffffffffffffffffffffffffffffffffffffffff1690602001909190803590602001909190803573ffffffffffffffffffffffffffffffffffffffff1690602001909190803590602001908201803590602001908080601f01602080910402602001604051908101604052809392919081815260200183838082843782019150505050505091905050610f59565b005b341561053e57600080fd5b6105f9600480803573ffffffffffffffffffffffffffffffffffffffff1690602001909190803590602001909190803590602001908201803590602001908080601f0160208091040260200160405190810160405280939291908181526020018383808284378201915050505050509190803590602001908201803590602001908080601f01602080910402602001604051908101604052809392919081815260200183838082843782019150505050505091905050611176565b6040518082815260200191505060405180910390f35b341561061a57600080fd5b6106d5600480803573ffffffffffffffffffffffffffffffffffffffff1690602001909190803590602001909190803590602001908201803590602001908080601f0160208091040260200160405190810160405280939291908181526020018383808284378201915050505050509190803590602001908201803590602001908080601f01602080910402602001604051908101604052809392919081815260200183838082843782019150505050505091905050611417565b6040518082815260200191505060405180910390f35b34156106f657600080fd5b61071760048080359060200190919080351515906020019091905050611526565b6040518082815260200191505060405180910390f35b341561073857600080fd5b6107b9600480803590602001909190803573ffffffffffffffffffffffffffffffffffffffff1690602001909190803590602001909190803590602001908201803590602001908080601f0160208091040260200160405190810160405280939291908181526020018383808284378201915050505050509190505061184a565b604051808215151515815260200191505060405180910390f35b34156107de57600080fd5b6107e6611933565b604051808273ffffffffffffffffffffffffffffffffffffffff1673ffffffffffffffffffffffffffffffffffffffff16815260200191505060405180910390f35b341561083357600080fd5b61085f600480803573ffffffffffffffffffffffffffffffffffffffff16906020019091905050611959565b005b60038181548110151561087057fe5b90600052602060002090600902016000915090508060000160009054906101000a900473ffffffffffffffffffffffffffffffffffffffff169080600101549080600201908060030154908060040160009054906101000a900460ff16908060040160019054906101000a900460ff16908060050154908060060154905088565b600080600080600080600060038981548110151561090b57fe5b9060005260206000209060090201965086600301544211801561093d57508660040160009054906101000a900460ff16155b8015610a2957508660000160009054906101000a900473ffffffffffffffffffffffffffffffffffffffff16876001015489604051808473ffffffffffffffffffffffffffffffffffffffff1673ffffffffffffffffffffffffffffffffffffffff166c0100000000000000000000000002815260140183815260200182805190602001908083835b6020831015156109eb57805182526020820191506020810190506020830392506109c6565b6001836020036101000a0380198251168184511680821785525050505050509050019350505050604051809103902060001916876006015460001916145b1515610a3457600080fd5b600095506000945060009350600092505b8660070180549050831015610baf578660070183815481101515610a6557fe5b90600052602060002090019150600560009054906101000a900473ffffffffffffffffffffffffffffffffffffffff1673ffffffffffffffffffffffffffffffffffffffff166370a082318360000160019054906101000a900473ffffffffffffffffffffffffffffffffffffffff166000604051602001526040518263ffffffff167c0100000000000000000000000000000000000000000000000000000000028152600401808273ffffffffffffffffffffffffffffffffffffffff1673ffffffffffffffffffffffffffffffffffffffff168152602001915050602060405180830381600087803b1515610b5b57600080fd5b6102c65a03f11515610b6c57600080fd5b50505060405180519050905080860195508160000160009054906101000a900460ff1615610b9e578085019450610ba4565b80840193505b826001019250610a45565b6001548610151515610bc057600080fd5b83851115610cc65760018760040160006101000a81548160ff0219169083151502179055508660000160009054906101000a900473ffffffffffffffffffffffffffffffffffffffff1673ffffffffffffffffffffffffffffffffffffffff1687600101548960405180828051906020019080838360005b83811015610c53578082015181840152602081019050610c38565b50505050905090810190601f168015610c805780820380516001836020036101000a031916815260200191505b5091505060006040518083038185876187965a03f1925050501515610ca457600080fd5b60018760040160016101000a81548160ff021916908315150217905550610ce4565b60008760040160016101000a81548160ff0219169083151502179055505b7f4bdc4ffee1d0e901f1c0270e9917651a82a81a109b5736b546a1b26668c55c0e89858703888a60040160019054906101000a900460ff16604051808581526020018481526020018381526020018215151515815260200194505050505060405180910390a1505050505050505050565b600560009054906101000a900473ffffffffffffffffffffffffffffffffffffffff1681565b60045481565b610d8c838383610dd2565b82600660006101000a81548173ffffffffffffffffffffffffffffffffffffffff021916908373ffffffffffffffffffffffffffffffffffffffff160217905550505050565b6000809054906101000a900473ffffffffffffffffffffffffffffffffffffffff1673ffffffffffffffffffffffffffffffffffffffff163373ffffffffffffffffffffffffffffffffffffffff16141515610e2d57600080fd5b82600560006101000a81548173ffffffffffffffffffffffffffffffffffffffff021916908373ffffffffffffffffffffffffffffffffffffffff1602179055506000821415610e7c57600191505b81600181905550806002819055507f68259880819f96f54b67d672fefc666565de06099c91b57a689a42073ba090c9600154600254600560009054906101000a900473ffffffffffffffffffffffffffffffffffffffff16604051808481526020018381526020018273ffffffffffffffffffffffffffffffffffffffff1673ffffffffffffffffffffffffffffffffffffffff168152602001935050505060405180910390a1505050565b60025481565b60015481565b6000809054906101000a900473ffffffffffffffffffffffffffffffffffffffff1681565b60008290508073ffffffffffffffffffffffffffffffffffffffff166323b872dd8630876000604051602001526040518463ffffffff167c0100000000000000000000000000000000000000000000000000000000028152600401808473ffffffffffffffffffffffffffffffffffffffff1673ffffffffffffffffffffffffffffffffffffffff1681526020018373ffffffffffffffffffffffffffffffffffffffff1673ffffffffffffffffffffffffffffffffffffffff1681526020018281526020019350505050602060405180830381600087803b151561103d57600080fd5b6102c65a03f1151561104e57600080fd5b50505060405180519050151561106357600080fd5b7f0eeb71b8926d7ed8f47a2cedf6b9b204e2001344c7fa20c696c9f06ea7c413c685858585604051808573ffffffffffffffffffffffffffffffffffffffff1673ffffffffffffffffffffffffffffffffffffffff1681526020018481526020018373ffffffffffffffffffffffffffffffffffffffff1673ffffffffffffffffffffffffffffffffffffffff16815260200180602001828103825283818151815260200191508051906020019080838360005b83811015611132578082015181840152602081019050611117565b50505050905090810190601f16801561115f5780820380516001836020036101000a031916815260200191505b509550505050505060405180910390a15050505050565b6000806003805480919060010161118d9190611aae565b915060038281548110151561119e57fe5b90600052602060002090600902019050858160000160006101000a81548173ffffffffffffffffffffffffffffffffffffffff021916908373ffffffffffffffffffffffffffffffffffffffff16021790555084816001018190555083816002019080519060200190611212929190611ae0565b50858584604051808473ffffffffffffffffffffffffffffffffffffffff1673ffffffffffffffffffffffffffffffffffffffff166c0100000000000000000000000002815260140183815260200182805190602001908083835b602083101515611292578051825260208201915060208101905060208303925061126d565b6001836020036101000a03801982511681845116808217855250505050505090500193505050506040518091039020816006018160001916905550603c600254024201816003018190555060008160040160006101000a81548160ff02191690831515021790555060008160040160016101000a81548160ff021916908315150217905550600081600501819055507f646fec02522b41e7125cfc859a64fd4f4cefd5dc3b6237ca0abe251ded1fa88182878787604051808581526020018473ffffffffffffffffffffffffffffffffffffffff1673ffffffffffffffffffffffffffffffffffffffff16815260200183815260200180602001828103825283818151815260200191508051906020019080838360005b838110156113c45780820151818401526020810190506113a9565b50505050905090810190601f1680156113f15780820380516001836020036101000a031916815260200191505b509550505050505060405180910390a16001820160048190555081915050949350505050565b600080600560009054906101000a900473ffffffffffffffffffffffffffffffffffffffff1673ffffffffffffffffffffffffffffffffffffffff166370a08231336000604051602001526040518263ffffffff167c0100000000000000000000000000000000000000000000000000000000028152600401808273ffffffffffffffffffffffffffffffffffffffff1673ffffffffffffffffffffffffffffffffffffffff168152602001915050602060405180830381600087803b15156114df57600080fd5b6102c65a03f115156114f057600080fd5b5050506040518051905011151561150657600080fd5b61151c85670de0b6b3a764000086028585611176565b9050949350505050565b6000806000600560009054906101000a900473ffffffffffffffffffffffffffffffffffffffff1673ffffffffffffffffffffffffffffffffffffffff166370a08231336000604051602001526040518263ffffffff167c0100000000000000000000000000000000000000000000000000000000028152600401808273ffffffffffffffffffffffffffffffffffffffff1673ffffffffffffffffffffffffffffffffffffffff168152602001915050602060405180830381600087803b15156115f057600080fd5b6102c65a03f1151561160157600080fd5b5050506040518051905011151561161757600080fd5b60038481548110151561162657fe5b90600052602060002090600902019050600115158160080160003373ffffffffffffffffffffffffffffffffffffffff1673ffffffffffffffffffffffffffffffffffffffff16815260200190815260200160002060009054906101000a900460ff1615151415151561169857600080fd5b8060070180548091906001016116ae9190611b60565b9150604080519081016040528084151581526020013373ffffffffffffffffffffffffffffffffffffffff1681525081600701838154811015156116ee57fe5b906000526020600020900160008201518160000160006101000a81548160ff02191690831515021790555060208201518160000160016101000a81548173ffffffffffffffffffffffffffffffffffffffff021916908373ffffffffffffffffffffffffffffffffffffffff16021790555090505060018160080160003373ffffffffffffffffffffffffffffffffffffffff1673ffffffffffffffffffffffffffffffffffffffff16815260200190815260200160002060006101000a81548160ff0219169083151502179055506001820181600501819055507f86abfce99b7dd908bec0169288797f85049ec73cbe046ed9de818fab3a497ae084843360405180848152602001831515151581526020018273ffffffffffffffffffffffffffffffffffffffff1673ffffffffffffffffffffffffffffffffffffffff168152602001935050505060405180910390a18191505092915050565b60008060038681548110151561185c57fe5b90600052602060002090600902019050848484604051808473ffffffffffffffffffffffffffffffffffffffff1673ffffffffffffffffffffffffffffffffffffffff166c0100000000000000000000000002815260140183815260200182805190602001908083835b6020831015156118eb57805182526020820191506020810190506020830392506118c6565b6001836020036101000a038019825116818451168082178552505050505050905001935050505060405180910390206000191681600601546000191614915050949350505050565b600660009054906101000a900473ffffffffffffffffffffffffffffffffffffffff1681565b6000809054906101000a900473ffffffffffffffffffffffffffffffffffffffff1673ffffffffffffffffffffffffffffffffffffffff163373ffffffffffffffffffffffffffffffffffffffff161415156119b457600080fd5b600073ffffffffffffffffffffffffffffffffffffffff168173ffffffffffffffffffffffffffffffffffffffff16141515156119f057600080fd5b8073ffffffffffffffffffffffffffffffffffffffff166000809054906101000a900473ffffffffffffffffffffffffffffffffffffffff1673ffffffffffffffffffffffffffffffffffffffff167f8be0079c531659141344cd1fd0a4f28419497f9722a3daafe3b4186f6b6457e060405160405180910390a3806000806101000a81548173ffffffffffffffffffffffffffffffffffffffff021916908373ffffffffffffffffffffffffffffffffffffffff16021790555050565b815481835581811511611adb57600902816009028360005260206000209182019101611ada9190611b8c565b5b505050565b828054600181600116156101000203166002900490600052602060002090601f016020900481019282601f10611b2157805160ff1916838001178555611b4f565b82800160010185558215611b4f579182015b82811115611b4e578251825591602001919060010190611b33565b5b509050611b5c9190611c3a565b5090565b815481835581811511611b8757818360005260206000209182019101611b869190611c5f565b5b505050565b611c3791905b80821115611c3357600080820160006101000a81549073ffffffffffffffffffffffffffffffffffffffff02191690556001820160009055600282016000611bda9190611cb9565b60038201600090556004820160006101000a81549060ff02191690556004820160016101000a81549060ff021916905560058201600090556006820160009055600782016000611c2a9190611d01565b50600901611b92565b5090565b90565b611c5c91905b80821115611c58576000816000905550600101611c40565b5090565b90565b611cb691905b80821115611cb257600080820160006101000a81549060ff02191690556000820160016101000a81549073ffffffffffffffffffffffffffffffffffffffff021916905550600101611c65565b5090565b90565b50805460018160011615610100020316600290046000825580601f10611cdf5750611cfe565b601f016020900490600052602060002090810190611cfd9190611c3a565b5b50565b5080546000825590600052602060002090810190611d1f9190611c5f565b505600a165627a7a72305820665b2a49041b448b3ae72361fe82d464ac18d78e084fe3c4284a0ef1fa2a36410029",
  "source": "pragma solidity ^0.4.18;\n\nimport \"zeppelin-solidity/contracts/ownership/Ownable.sol\";\nimport \"./SimpleDatabaseFactory.sol\";\n\ncontract tokenRecipient {\n    event receivedEther(address sender, uint amount);\n    event receivedTokens(address _from, uint256 _value, address _token, bytes _extraData);\n\n    function receiveApproval(address _from, uint256 _value, address _token, bytes _extraData) public {\n        Token t = Token(_token);\n        require(t.transferFrom(_from, this, _value));\n        receivedTokens(_from, _value, _token, _extraData);\n    }\n\n    function () payable public{\n        receivedEther(msg.sender, msg.value);\n    }\n}\n\ncontract Token {\n    mapping (address => uint256) public balanceOf;\n    function transferFrom(address _from, address _to, uint256 _value) public returns (bool success);\n}\n\n/**\n * The shareholder association contract itself\n */\ncontract Association is Ownable, tokenRecipient {\n\n    uint public minimumQuorum;\n    uint public debatingPeriodInMinutes;\n    Proposal[] public proposals;\n    uint public numProposals;\n    Token public sharesTokenAddress;\n    address public sharesAddressA;\n\n    event ProposalAdded(uint proposalID, address recipient, uint amount, string description);\n    event Voted(uint proposalID, bool position, address voter);\n    event ProposalTallied(uint proposalID, uint result, uint quorum, bool active);\n    event ChangeOfRules(uint newMinimumQuorum, uint newDebatingPeriodInMinutes, address newSharesTokenAddress);\n\n\n    struct Proposal {\n        address recipient;\n        uint amount;\n        string description;\n        uint votingDeadline;\n        bool executed;\n        bool proposalPassed;\n        uint numberOfVotes;\n        bytes32 proposalHash;\n        Vote[] votes;\n        mapping (address => bool) voted;\n    }\n\n    struct Vote {\n        bool inSupport;\n        address voter;\n    }\n\n    // Modifier that allows only shareholders to vote and create new proposals\n    modifier onlyShareholders {\n        require(sharesTokenAddress.balanceOf(msg.sender) > 0);\n        _;\n    }\n\n    /**\n     * Constructor function\n     *\n     * First time setup\n     */\n    function DatabaseAssociation(Token sharesAddress, uint minimumSharesToPassAVote, uint minutesForDebate) payable public {\n        changeVotingRules(sharesAddress, minimumSharesToPassAVote, minutesForDebate);\n        sharesAddressA = sharesAddress;\n    }\n\n    /**\n     * Change voting rules\n     *\n     * Make so that proposals need tobe discussed for at least `minutesForDebate/60` hours\n     * and all voters combined must own more than `minimumSharesToPassAVote` shares of token `sharesAddress` to be executed\n     *\n     * @param sharesAddress token address\n     * @param minimumSharesToPassAVote proposal can vote only if the sum of shares held by all voters exceed this number\n     * @param minutesForDebate the minimum amount of delay between when a proposal is made and when it can be executed\n     */\n    function changeVotingRules(Token sharesAddress, uint minimumSharesToPassAVote, uint minutesForDebate) onlyOwner public{\n        sharesTokenAddress = Token(sharesAddress);\n        if (minimumSharesToPassAVote == 0 ) minimumSharesToPassAVote = 1;\n        minimumQuorum = minimumSharesToPassAVote;\n        debatingPeriodInMinutes = minutesForDebate;\n        ChangeOfRules(minimumQuorum, debatingPeriodInMinutes, sharesTokenAddress);\n    }\n\n    /**\n     * Add Proposal\n     *\n     * Propose to send `weiAmount / 1e18` ether to `beneficiary` for `jobDescription`. `transactionBytecode ? Contains : Does not contain` code.\n     *\n     * @param beneficiary who to send the ether to\n     * @param weiAmount amount of ether to send, in wei\n     * @param jobDescription Description of job\n     * @param transactionBytecode bytecode of transaction\n     */\n    function newProposal (\n        address beneficiary,\n        uint weiAmount,\n        string jobDescription,\n        bytes transactionBytecode\n    ) public\n        //onlyShareholders\n        returns (uint proposalID)\n    {\n        proposalID = proposals.length++;\n        Proposal storage p = proposals[proposalID];\n        p.recipient = beneficiary;\n        p.amount = weiAmount;\n        p.description = jobDescription;\n        p.proposalHash = keccak256(beneficiary, weiAmount, transactionBytecode);\n        p.votingDeadline = now + debatingPeriodInMinutes * 1 minutes;\n        p.executed = false;\n        p.proposalPassed = false;\n        p.numberOfVotes = 0;\n        ProposalAdded(proposalID, beneficiary, weiAmount, jobDescription);\n        numProposals = proposalID+1;\n\n        return proposalID;\n    }\n\n    /**\n     * Add proposal in Ether\n     *\n     * Propose to send `etherAmount` ether to `beneficiary` for `jobDescription`. `transactionBytecode ? Contains : Does not contain` code.\n     * This is a convenience function to use if the amount to be given is in round number of ether units.\n     *\n     * @param beneficiary who to send the ether to\n     * @param etherAmount amount of ether to send\n     * @param jobDescription Description of job\n     * @param transactionBytecode bytecode of transaction\n     */\n    function newProposalInEther(\n        address beneficiary,\n        uint etherAmount,\n        string jobDescription,\n        bytes transactionBytecode\n    ) public\n        onlyShareholders\n        returns (uint proposalID)\n    {\n        return newProposal(beneficiary, etherAmount * 1 ether, jobDescription, transactionBytecode);\n    }\n\n    /**\n     * Check if a proposal code matches\n     *\n     * @param proposalNumber ID number of the proposal to query\n     * @param beneficiary who to send the ether to\n     * @param weiAmount amount of ether to send\n     * @param transactionBytecode bytecode of transaction\n     */\n    function checkProposalCode(\n        uint proposalNumber,\n        address beneficiary,\n        uint weiAmount,\n        bytes transactionBytecode\n    ) public\n        constant\n        returns (bool codeChecksOut)\n    {\n        Proposal storage p = proposals[proposalNumber];\n        return p.proposalHash == keccak256(beneficiary, weiAmount, transactionBytecode);\n    }\n\n    /**\n     * Log a vote for a proposal\n     *\n     * Vote `supportsProposal? in support of : against` proposal #`proposalNumber`\n     *\n     * @param proposalNumber number of proposal\n     * @param supportsProposal either in favor or against it\n     */\n    function vote(\n        uint proposalNumber,\n        bool supportsProposal\n    ) public\n        onlyShareholders\n        returns (uint voteID)\n    {\n        Proposal storage p = proposals[proposalNumber];\n        require(p.voted[msg.sender] != true);\n\n        voteID = p.votes.length++;\n        p.votes[voteID] = Vote({inSupport: supportsProposal, voter: msg.sender});\n        p.voted[msg.sender] = true;\n        p.numberOfVotes = voteID +1;\n        Voted(proposalNumber,  supportsProposal, msg.sender);\n        return voteID;\n    }\n\n    /**\n     * Finish vote\n     *\n     * Count the votes proposal #`proposalNumber` and execute it if approved\n     *\n     * @param proposalNumber proposal number\n     * @param transactionBytecode optional: if the transaction contained a bytecode, you need to send it\n     */\n    function executeProposal(uint proposalNumber, bytes transactionBytecode) public {\n        Proposal storage p = proposals[proposalNumber];\n\n        require(now > p.votingDeadline                                             // If it is past the voting deadline\n            && !p.executed                                                          // and it has not already been executed\n            && p.proposalHash == keccak256(p.recipient, p.amount, transactionBytecode)); // and the supplied code matches the proposal...\n\n\n        // ...then tally the results\n        uint quorum = 0;\n        uint yea = 0;\n        uint nay = 0;\n\n        for (uint i = 0; i <  p.votes.length; ++i) {\n            Vote storage v = p.votes[i];\n            uint voteWeight = sharesTokenAddress.balanceOf(v.voter);\n            quorum += voteWeight;\n            if (v.inSupport) {\n                yea += voteWeight;\n            } else {\n                nay += voteWeight;\n            }\n        }\n\n        require(quorum >= minimumQuorum); // Check if a minimum quorum has been reached\n\n        if (yea > nay ) {\n            // Proposal passed; execute the transaction\n\n            p.executed = true;\n            require(p.recipient.call.value(p.amount)(transactionBytecode));\n\n            p.proposalPassed = true;\n        } else {\n            // Proposal failed\n            p.proposalPassed = false;\n        }\n\n        // Fire Events\n        ProposalTallied(proposalNumber, yea - nay, quorum, p.proposalPassed);\n    }\n}\n\n",
  "sourcePath": "/Users/david/Projects/blockchain/etherDB/contracts/Association.sol",
  "compiler": {
    "name": "solc",
    "version": "0.4.18+commit.9cf6e910.Emscripten.clang"
  },
  "schemaVersion": "1.0.1",
  "updatedAt": "2018-01-09T23:34:03.493Z"
}