{
  "contractName": "DatabaseAssociation",
  "abi": [
    {
      "constant": true,
      "inputs": [
        {
          "name": "",
          "type": "uint256"
        }
      ],
      "name": "proposals",
      "outputs": [
        {
          "name": "recipient",
          "type": "address"
        },
        {
          "name": "amount",
          "type": "uint256"
        },
        {
          "name": "description",
          "type": "string"
        },
        {
          "name": "votingDeadline",
          "type": "uint256"
        },
        {
          "name": "executed",
          "type": "bool"
        },
        {
          "name": "proposalPassed",
          "type": "bool"
        },
        {
          "name": "numberOfVotes",
          "type": "uint256"
        },
        {
          "name": "proposalHash",
          "type": "bytes32"
        },
        {
          "name": "argument",
          "type": "string"
        },
        {
          "name": "curator",
          "type": "address"
        },
        {
          "name": "state",
          "type": "uint256"
        }
      ],
      "payable": false,
      "stateMutability": "view",
      "type": "function"
    },
    {
      "constant": false,
      "inputs": [
        {
          "name": "proposalNumber",
          "type": "uint256"
        },
        {
          "name": "transactionBytecode",
          "type": "bytes"
        }
      ],
      "name": "executeProposal",
      "outputs": [],
      "payable": false,
      "stateMutability": "nonpayable",
      "type": "function"
    },
    {
      "constant": true,
      "inputs": [],
      "name": "sharesTokenAddress",
      "outputs": [
        {
          "name": "",
          "type": "address"
        }
      ],
      "payable": false,
      "stateMutability": "view",
      "type": "function"
    },
    {
      "constant": false,
      "inputs": [
        {
          "name": "database",
          "type": "address"
        },
        {
          "name": "jobDescription",
          "type": "string"
        },
        {
          "name": "ipfsHash",
          "type": "string"
        },
        {
          "name": "curator",
          "type": "address"
        }
      ],
      "name": "proposeAddShard",
      "outputs": [
        {
          "name": "proposalID",
          "type": "uint256"
        }
      ],
      "payable": false,
      "stateMutability": "nonpayable",
      "type": "function"
    },
    {
      "constant": true,
      "inputs": [],
      "name": "numProposals",
      "outputs": [
        {
          "name": "",
          "type": "uint256"
        }
      ],
      "payable": false,
      "stateMutability": "view",
      "type": "function"
    },
    {
      "constant": false,
      "inputs": [
        {
          "name": "jobDescription",
          "type": "string"
        },
        {
          "name": "name",
          "type": "string"
        }
      ],
      "name": "proposeAddDatabase",
      "outputs": [
        {
          "name": "proposalID",
          "type": "uint256"
        }
      ],
      "payable": false,
      "stateMutability": "nonpayable",
      "type": "function"
    },
    {
      "constant": false,
      "inputs": [
        {
          "name": "sharesAddress",
          "type": "address"
        },
        {
          "name": "minimumSharesToPassAVote",
          "type": "uint256"
        },
        {
          "name": "minutesForDebate",
          "type": "uint256"
        }
      ],
      "name": "changeVotingRules",
      "outputs": [],
      "payable": false,
      "stateMutability": "nonpayable",
      "type": "function"
    },
    {
      "constant": true,
      "inputs": [],
      "name": "debatingPeriodInMinutes",
      "outputs": [
        {
          "name": "",
          "type": "uint256"
        }
      ],
      "payable": false,
      "stateMutability": "view",
      "type": "function"
    },
    {
      "constant": true,
      "inputs": [],
      "name": "minimumQuorum",
      "outputs": [
        {
          "name": "",
          "type": "uint256"
        }
      ],
      "payable": false,
      "stateMutability": "view",
      "type": "function"
    },
    {
      "constant": true,
      "inputs": [],
      "name": "owner",
      "outputs": [
        {
          "name": "",
          "type": "address"
        }
      ],
      "payable": false,
      "stateMutability": "view",
      "type": "function"
    },
    {
      "constant": true,
      "inputs": [],
      "name": "databaseFactory",
      "outputs": [
        {
          "name": "",
          "type": "address"
        }
      ],
      "payable": false,
      "stateMutability": "view",
      "type": "function"
    },
    {
      "constant": false,
      "inputs": [
        {
          "name": "beneficiary",
          "type": "address"
        },
        {
          "name": "etherAmount",
          "type": "uint256"
        },
        {
          "name": "jobDescription",
          "type": "string"
        },
        {
          "name": "transactionBytecode",
          "type": "bytes"
        },
        {
          "name": "argument",
          "type": "string"
        },
        {
          "name": "curator",
          "type": "address"
        }
      ],
      "name": "newProposalInEther",
      "outputs": [
        {
          "name": "proposalID",
          "type": "uint256"
        }
      ],
      "payable": false,
      "stateMutability": "nonpayable",
      "type": "function"
    },
    {
      "constant": false,
      "inputs": [
        {
          "name": "proposalNumber",
          "type": "uint256"
        },
        {
          "name": "supportsProposal",
          "type": "bool"
        }
      ],
      "name": "vote",
      "outputs": [
        {
          "name": "voteID",
          "type": "uint256"
        }
      ],
      "payable": false,
      "stateMutability": "nonpayable",
      "type": "function"
    },
    {
      "constant": false,
      "inputs": [
        {
          "name": "beneficiary",
          "type": "address"
        },
        {
          "name": "weiAmount",
          "type": "uint256"
        },
        {
          "name": "jobDescription",
          "type": "string"
        },
        {
          "name": "transactionBytecode",
          "type": "bytes"
        },
        {
          "name": "argument",
          "type": "string"
        },
        {
          "name": "curator",
          "type": "address"
        },
        {
          "name": "state",
          "type": "uint256"
        }
      ],
      "name": "newProposal",
      "outputs": [
        {
          "name": "proposalID",
          "type": "uint256"
        }
      ],
      "payable": false,
      "stateMutability": "nonpayable",
      "type": "function"
    },
    {
      "constant": true,
      "inputs": [
        {
          "name": "proposalNumber",
          "type": "uint256"
        },
        {
          "name": "beneficiary",
          "type": "address"
        },
        {
          "name": "weiAmount",
          "type": "uint256"
        },
        {
          "name": "transactionBytecode",
          "type": "bytes"
        }
      ],
      "name": "checkProposalCode",
      "outputs": [
        {
          "name": "codeChecksOut",
          "type": "bool"
        }
      ],
      "payable": false,
      "stateMutability": "view",
      "type": "function"
    },
    {
      "constant": false,
      "inputs": [
        {
          "name": "newOwner",
          "type": "address"
        }
      ],
      "name": "transferOwnership",
      "outputs": [],
      "payable": false,
      "stateMutability": "nonpayable",
      "type": "function"
    },
    {
      "inputs": [
        {
          "name": "sharesAddress",
          "type": "address"
        },
        {
          "name": "minimumSharesToPassAVote",
          "type": "uint256"
        },
        {
          "name": "minutesForDebate",
          "type": "uint256"
        }
      ],
      "payable": true,
      "stateMutability": "payable",
      "type": "constructor"
    },
    {
      "payable": true,
      "stateMutability": "payable",
      "type": "fallback"
    },
    {
      "anonymous": false,
      "inputs": [
        {
          "indexed": false,
          "name": "proposalID",
          "type": "uint256"
        },
        {
          "indexed": false,
          "name": "recipient",
          "type": "address"
        },
        {
          "indexed": false,
          "name": "amount",
          "type": "uint256"
        },
        {
          "indexed": false,
          "name": "description",
          "type": "string"
        },
        {
          "indexed": false,
          "name": "argument",
          "type": "string"
        },
        {
          "indexed": false,
          "name": "curator",
          "type": "address"
        },
        {
          "indexed": false,
          "name": "state",
          "type": "uint256"
        }
      ],
      "name": "ProposalAdded",
      "type": "event"
    },
    {
      "anonymous": false,
      "inputs": [
        {
          "indexed": false,
          "name": "proposalID",
          "type": "uint256"
        },
        {
          "indexed": false,
          "name": "position",
          "type": "bool"
        },
        {
          "indexed": false,
          "name": "voter",
          "type": "address"
        }
      ],
      "name": "Voted",
      "type": "event"
    },
    {
      "anonymous": false,
      "inputs": [
        {
          "indexed": false,
          "name": "proposalID",
          "type": "uint256"
        },
        {
          "indexed": false,
          "name": "result",
          "type": "uint256"
        },
        {
          "indexed": false,
          "name": "quorum",
          "type": "uint256"
        },
        {
          "indexed": false,
          "name": "active",
          "type": "bool"
        }
      ],
      "name": "ProposalTallied",
      "type": "event"
    },
    {
      "anonymous": false,
      "inputs": [
        {
          "indexed": false,
          "name": "newMinimumQuorum",
          "type": "uint256"
        },
        {
          "indexed": false,
          "name": "newDebatingPeriodInMinutes",
          "type": "uint256"
        },
        {
          "indexed": false,
          "name": "newSharesTokenAddress",
          "type": "address"
        }
      ],
      "name": "ChangeOfRules",
      "type": "event"
    },
    {
      "anonymous": false,
      "inputs": [
        {
          "indexed": false,
          "name": "newDatabaseFactory",
          "type": "address"
        }
      ],
      "name": "NewFactory",
      "type": "event"
    },
    {
      "anonymous": false,
      "inputs": [
        {
          "indexed": false,
          "name": "sender",
          "type": "address"
        },
        {
          "indexed": false,
          "name": "amount",
          "type": "uint256"
        }
      ],
      "name": "receivedEther",
      "type": "event"
    },
    {
      "anonymous": false,
      "inputs": [
        {
          "indexed": false,
          "name": "_from",
          "type": "address"
        },
        {
          "indexed": false,
          "name": "_value",
          "type": "uint256"
        },
        {
          "indexed": false,
          "name": "_token",
          "type": "address"
        },
        {
          "indexed": false,
          "name": "_extraData",
          "type": "bytes"
        }
      ],
      "name": "receivedTokens",
      "type": "event"
    },
    {
      "anonymous": false,
      "inputs": [
        {
          "indexed": true,
          "name": "previousOwner",
          "type": "address"
        },
        {
          "indexed": true,
          "name": "newOwner",
          "type": "address"
        }
      ],
      "name": "OwnershipTransferred",
      "type": "event"
    },
    {
      "constant": false,
      "inputs": [
        {
          "name": "_from",
          "type": "address"
        },
        {
          "name": "_value",
          "type": "uint256"
        },
        {
          "name": "_token",
          "type": "address"
        },
        {
          "name": "_extraData",
          "type": "bytes"
        }
      ],
      "name": "receiveApproval",
      "outputs": [],
      "payable": false,
      "stateMutability": "nonpayable",
      "type": "function"
    }
  ],
  "bytecode": "0x60606040526040516060806200403683398101604052808051906020019091908051906020019091908051906020019091905050336000806101000a81548173ffffffffffffffffffffffffffffffffffffffff021916908373ffffffffffffffffffffffffffffffffffffffff1602179055506200009483838362000183640100000000026200143b176401000000009004565b6200009e620002db565b604051809103906000f0801515620000b557600080fd5b600660006101000a81548173ffffffffffffffffffffffffffffffffffffffff021916908373ffffffffffffffffffffffffffffffffffffffff1602179055507fa9a8b2f8fb6763e00282add661bca3f2b49006e30222824c36a47a3de1f6b258600660009054906101000a900473ffffffffffffffffffffffffffffffffffffffff16604051808273ffffffffffffffffffffffffffffffffffffffff1673ffffffffffffffffffffffffffffffffffffffff16815260200191505060405180910390a1505050620002ec565b6000809054906101000a900473ffffffffffffffffffffffffffffffffffffffff1673ffffffffffffffffffffffffffffffffffffffff163373ffffffffffffffffffffffffffffffffffffffff16141515620001df57600080fd5b82600560006101000a81548173ffffffffffffffffffffffffffffffffffffffff021916908373ffffffffffffffffffffffffffffffffffffffff16021790555060008214156200022f57600191505b81600181905550806002819055507f68259880819f96f54b67d672fefc666565de06099c91b57a689a42073ba090c9600154600254600560009054906101000a900473ffffffffffffffffffffffffffffffffffffffff16604051808481526020018381526020018273ffffffffffffffffffffffffffffffffffffffff1673ffffffffffffffffffffffffffffffffffffffff168152602001935050505060405180910390a1505050565b60405161191a806200271c83390190565b61242080620002fc6000396000f3006060604052600436106100f1576000357c0100000000000000000000000000000000000000000000000000000000900463ffffffff168063013cf08b1461015e578063237e94921461034757806327ebcf0e146103ad5780633a38018714610402578063400e3949146104f45780634c196e761461051d57806352091047146105d157806369bd34361461061c5780638160f0b5146106455780638da5cb5b1461066e5780638f4ffcb1146106c357806392c542d414610767578063bb6854d9146107bc578063c9d27afe146108fa578063ea53d8111461093c578063eceb294514610a83578063f2fde38b14610b29575b7fa398b89ba344a0b23a0b9de53db298b2a1a868b396c1878b7e9dcbafecd49b133334604051808373ffffffffffffffffffffffffffffffffffffffff1673ffffffffffffffffffffffffffffffffffffffff1681526020018281526020019250505060405180910390a1005b341561016957600080fd5b61017f6004808035906020019091905050610b62565b604051808c73ffffffffffffffffffffffffffffffffffffffff1673ffffffffffffffffffffffffffffffffffffffff1681526020018b8152602001806020018a815260200189151515158152602001881515151581526020018781526020018660001916600019168152602001806020018573ffffffffffffffffffffffffffffffffffffffff1673ffffffffffffffffffffffffffffffffffffffff16815260200184815260200183810383528c8181546001816001161561010002031660029004815260200191508054600181600116156101000203166002900480156102aa5780601f1061027f576101008083540402835291602001916102aa565b820191906000526020600020905b81548152906001019060200180831161028d57829003601f168201915b505083810382528681815460018160011615610100020316600290048152602001915080546001816001161561010002031660029004801561032d5780601f106103025761010080835404028352916020019161032d565b820191906000526020600020905b81548152906001019060200180831161031057829003601f168201915b50509d505050505050505050505050505060405180910390f35b341561035257600080fd5b6103ab600480803590602001909190803590602001908201803590602001908080601f01602080910402602001604051908101604052809392919081815260200183838082843782019150505050505091905050610c23565b005b34156103b857600080fd5b6103c0611394565b604051808273ffffffffffffffffffffffffffffffffffffffff1673ffffffffffffffffffffffffffffffffffffffff16815260200191505060405180910390f35b341561040d57600080fd5b6104de600480803573ffffffffffffffffffffffffffffffffffffffff1690602001909190803590602001908201803590602001908080601f0160208091040260200160405190810160405280939291908181526020018383808284378201915050505050509190803590602001908201803590602001908080601f0160208091040260200160405190810160405280939291908181526020018383808284378201915050505050509190803573ffffffffffffffffffffffffffffffffffffffff169060200190919050506113ba565b6040518082815260200191505060405180910390f35b34156104ff57600080fd5b6105076113e7565b6040518082815260200191505060405180910390f35b341561052857600080fd5b6105bb600480803590602001908201803590602001908080601f0160208091040260200160405190810160405280939291908181526020018383808284378201915050505050509190803590602001908201803590602001908080601f016020809104026020016040519081016040528093929190818152602001838380828437820191505050505050919050506113ed565b6040518082815260200191505060405180910390f35b34156105dc57600080fd5b61061a600480803573ffffffffffffffffffffffffffffffffffffffff1690602001909190803590602001909190803590602001909190505061143b565b005b341561062757600080fd5b61062f611591565b6040518082815260200191505060405180910390f35b341561065057600080fd5b610658611597565b6040518082815260200191505060405180910390f35b341561067957600080fd5b61068161159d565b604051808273ffffffffffffffffffffffffffffffffffffffff1673ffffffffffffffffffffffffffffffffffffffff16815260200191505060405180910390f35b34156106ce57600080fd5b610765600480803573ffffffffffffffffffffffffffffffffffffffff1690602001909190803590602001909190803573ffffffffffffffffffffffffffffffffffffffff1690602001909190803590602001908201803590602001908080601f016020809104026020016040519081016040528093929190818152602001838380828437820191505050505050919050506115c2565b005b341561077257600080fd5b61077a6117df565b604051808273ffffffffffffffffffffffffffffffffffffffff1673ffffffffffffffffffffffffffffffffffffffff16815260200191505060405180910390f35b34156107c757600080fd5b6108e4600480803573ffffffffffffffffffffffffffffffffffffffff1690602001909190803590602001909190803590602001908201803590602001908080601f0160208091040260200160405190810160405280939291908181526020018383808284378201915050505050509190803590602001908201803590602001908080601f0160208091040260200160405190810160405280939291908181526020018383808284378201915050505050509190803590602001908201803590602001908080601f0160208091040260200160405190810160405280939291908181526020018383808284378201915050505050509190803573ffffffffffffffffffffffffffffffffffffffff16906020019091905050611805565b6040518082815260200191505060405180910390f35b341561090557600080fd5b6109266004808035906020019091908035151590602001909190505061182d565b6040518082815260200191505060405180910390f35b341561094757600080fd5b610a6d600480803573ffffffffffffffffffffffffffffffffffffffff1690602001909190803590602001909190803590602001908201803590602001908080601f0160208091040260200160405190810160405280939291908181526020018383808284378201915050505050509190803590602001908201803590602001908080601f0160208091040260200160405190810160405280939291908181526020018383808284378201915050505050509190803590602001908201803590602001908080601f0160208091040260200160405190810160405280939291908181526020018383808284378201915050505050509190803573ffffffffffffffffffffffffffffffffffffffff16906020019091908035906020019091905050611b51565b6040518082815260200191505060405180910390f35b3415610a8e57600080fd5b610b0f600480803590602001909190803573ffffffffffffffffffffffffffffffffffffffff1690602001909190803590602001909190803590602001908201803590602001908080601f01602080910402602001604051908101604052809392919081815260200183838082843782019150505050505091905050611f03565b604051808215151515815260200191505060405180910390f35b3415610b3457600080fd5b610b60600480803573ffffffffffffffffffffffffffffffffffffffff16906020019091905050611fec565b005b600381815481101515610b7157fe5b90600052602060002090600c02016000915090508060000160009054906101000a900473ffffffffffffffffffffffffffffffffffffffff169080600101549080600201908060030154908060040160009054906101000a900460ff16908060040160019054906101000a900460ff169080600501549080600601549080600701908060080160009054906101000a900473ffffffffffffffffffffffffffffffffffffffff1690806009015490508b565b60008060008060008060008060038a815481101515610c3e57fe5b90600052602060002090600c02019750876003015442118015610c7057508760040160009054906101000a900460ff16155b8015610d5c57508760000160009054906101000a900473ffffffffffffffffffffffffffffffffffffffff1688600101548a604051808473ffffffffffffffffffffffffffffffffffffffff1673ffffffffffffffffffffffffffffffffffffffff166c0100000000000000000000000002815260140183815260200182805190602001908083835b602083101515610d1e5780518252602082019150602081019050602083039250610cf9565b6001836020036101000a0380198251168184511680821785525050505050509050019350505050604051809103902060001916886006015460001916145b1515610d6757600080fd5b600096506000955060009450600093505b87600a0180549050841015610ee25787600a0184815481101515610d9857fe5b90600052602060002090019250600560009054906101000a900473ffffffffffffffffffffffffffffffffffffffff1673ffffffffffffffffffffffffffffffffffffffff166370a082318460000160019054906101000a900473ffffffffffffffffffffffffffffffffffffffff166000604051602001526040518263ffffffff167c0100000000000000000000000000000000000000000000000000000000028152600401808273ffffffffffffffffffffffffffffffffffffffff1673ffffffffffffffffffffffffffffffffffffffff168152602001915050602060405180830381600087803b1515610e8e57600080fd5b6102c65a03f11515610e9f57600080fd5b50505060405180519050915081870196508260000160009054906101000a900460ff1615610ed1578186019550610ed7565b81850194505b836001019350610d78565b6001548710151515610ef357600080fd5b848611156113045760018860040160006101000a81548160ff02191690831515021790555060018860090154141561106e57600660009054906101000a900473ffffffffffffffffffffffffffffffffffffffff1673ffffffffffffffffffffffffffffffffffffffff16636d823690896007016000604051602001526040518263ffffffff167c010000000000000000000000000000000000000000000000000000000002815260040180806020018281038252838181546001816001161561010002031660029004815260200191508054600181600116156101000203166002900480156110245780601f10610ff957610100808354040283529160200191611024565b820191906000526020600020905b81548152906001019060200180831161100757829003601f168201915b505092505050602060405180830381600087803b151561104357600080fd5b6102c65a03f1151561105457600080fd5b50505060405180519050151561106957600080fd5b6112e2565b600288600901541415611221578760000160009054906101000a900473ffffffffffffffffffffffffffffffffffffffff1690508073ffffffffffffffffffffffffffffffffffffffff1663d40287398960080160009054906101000a900473ffffffffffffffffffffffffffffffffffffffff168a6007016000604051602001526040518363ffffffff167c0100000000000000000000000000000000000000000000000000000000028152600401808373ffffffffffffffffffffffffffffffffffffffff1673ffffffffffffffffffffffffffffffffffffffff168152602001806020018281038252838181546001816001161561010002031660029004815260200191508054600181600116156101000203166002900480156111d65780601f106111ab576101008083540402835291602001916111d6565b820191906000526020600020905b8154815290600101906020018083116111b957829003601f168201915b50509350505050602060405180830381600087803b15156111f657600080fd5b6102c65a03f1151561120757600080fd5b50505060405180519050151561121c57600080fd5b6112e1565b8760000160009054906101000a900473ffffffffffffffffffffffffffffffffffffffff1673ffffffffffffffffffffffffffffffffffffffff1688600101548a60405180828051906020019080838360005b8381101561128f578082015181840152602081019050611274565b50505050905090810190601f1680156112bc5780820380516001836020036101000a031916815260200191505b5091505060006040518083038185876187965a03f19250505015156112e057600080fd5b5b5b60018860040160016101000a81548160ff021916908315150217905550611322565b60008860040160016101000a81548160ff0219169083151502179055505b7f4bdc4ffee1d0e901f1c0270e9917651a82a81a109b5736b546a1b26668c55c0e8a868803898b60040160019054906101000a900460ff16604051808581526020018481526020018381526020018215151515815260200194505050505060405180910390a150505050505050505050565b600560009054906101000a900473ffffffffffffffffffffffffffffffffffffffff1681565b60006113dd85600086602060405190810160405280600081525087876002611b51565b9050949350505050565b60045481565b6000611433600660009054906101000a900473ffffffffffffffffffffffffffffffffffffffff1660008560206040519081016040528060008152508660006001611b51565b905092915050565b6000809054906101000a900473ffffffffffffffffffffffffffffffffffffffff1673ffffffffffffffffffffffffffffffffffffffff163373ffffffffffffffffffffffffffffffffffffffff1614151561149657600080fd5b82600560006101000a81548173ffffffffffffffffffffffffffffffffffffffff021916908373ffffffffffffffffffffffffffffffffffffffff16021790555060008214156114e557600191505b81600181905550806002819055507f68259880819f96f54b67d672fefc666565de06099c91b57a689a42073ba090c9600154600254600560009054906101000a900473ffffffffffffffffffffffffffffffffffffffff16604051808481526020018381526020018273ffffffffffffffffffffffffffffffffffffffff1673ffffffffffffffffffffffffffffffffffffffff168152602001935050505060405180910390a1505050565b60025481565b60015481565b6000809054906101000a900473ffffffffffffffffffffffffffffffffffffffff1681565b60008290508073ffffffffffffffffffffffffffffffffffffffff166323b872dd8630876000604051602001526040518463ffffffff167c0100000000000000000000000000000000000000000000000000000000028152600401808473ffffffffffffffffffffffffffffffffffffffff1673ffffffffffffffffffffffffffffffffffffffff1681526020018373ffffffffffffffffffffffffffffffffffffffff1673ffffffffffffffffffffffffffffffffffffffff1681526020018281526020019350505050602060405180830381600087803b15156116a657600080fd5b6102c65a03f115156116b757600080fd5b5050506040518051905015156116cc57600080fd5b7f0eeb71b8926d7ed8f47a2cedf6b9b204e2001344c7fa20c696c9f06ea7c413c685858585604051808573ffffffffffffffffffffffffffffffffffffffff1673ffffffffffffffffffffffffffffffffffffffff1681526020018481526020018373ffffffffffffffffffffffffffffffffffffffff1673ffffffffffffffffffffffffffffffffffffffff16815260200180602001828103825283818151815260200191508051906020019080838360005b8381101561179b578082015181840152602081019050611780565b50505050905090810190601f1680156117c85780820380516001836020036101000a031916815260200191505b509550505050505060405180910390a15050505050565b600660009054906101000a900473ffffffffffffffffffffffffffffffffffffffff1681565b600061182187670de0b6b3a76400008802878787876000611b51565b90509695505050505050565b6000806000600560009054906101000a900473ffffffffffffffffffffffffffffffffffffffff1673ffffffffffffffffffffffffffffffffffffffff166370a08231336000604051602001526040518263ffffffff167c0100000000000000000000000000000000000000000000000000000000028152600401808273ffffffffffffffffffffffffffffffffffffffff1673ffffffffffffffffffffffffffffffffffffffff168152602001915050602060405180830381600087803b15156118f757600080fd5b6102c65a03f1151561190857600080fd5b5050506040518051905011151561191e57600080fd5b60038481548110151561192d57fe5b90600052602060002090600c020190506001151581600b0160003373ffffffffffffffffffffffffffffffffffffffff1673ffffffffffffffffffffffffffffffffffffffff16815260200190815260200160002060009054906101000a900460ff1615151415151561199f57600080fd5b80600a0180548091906001016119b59190612141565b9150604080519081016040528084151581526020013373ffffffffffffffffffffffffffffffffffffffff1681525081600a01838154811015156119f557fe5b906000526020600020900160008201518160000160006101000a81548160ff02191690831515021790555060208201518160000160016101000a81548173ffffffffffffffffffffffffffffffffffffffff021916908373ffffffffffffffffffffffffffffffffffffffff160217905550905050600181600b0160003373ffffffffffffffffffffffffffffffffffffffff1673ffffffffffffffffffffffffffffffffffffffff16815260200190815260200160002060006101000a81548160ff0219169083151502179055506001820181600501819055507f86abfce99b7dd908bec0169288797f85049ec73cbe046ed9de818fab3a497ae084843360405180848152602001831515151581526020018273ffffffffffffffffffffffffffffffffffffffff1673ffffffffffffffffffffffffffffffffffffffff168152602001935050505060405180910390a18191505092915050565b60008060038054809190600101611b68919061216d565b9150600382815481101515611b7957fe5b90600052602060002090600c02019050888160000160006101000a81548173ffffffffffffffffffffffffffffffffffffffff021916908373ffffffffffffffffffffffffffffffffffffffff16021790555087816001018190555086816002019080519060200190611bed92919061219f565b50888887604051808473ffffffffffffffffffffffffffffffffffffffff1673ffffffffffffffffffffffffffffffffffffffff166c0100000000000000000000000002815260140183815260200182805190602001908083835b602083101515611c6d5780518252602082019150602081019050602083039250611c48565b6001836020036101000a03801982511681845116808217855250505050505090500193505050506040518091039020816006018160001916905550603c600254024201816003018190555060008160040160006101000a81548160ff02191690831515021790555060008160040160016101000a81548160ff0219169083151502179055506000816005018190555084816007019080519060200190611d1492919061219f565b50838160080160006101000a81548173ffffffffffffffffffffffffffffffffffffffff021916908373ffffffffffffffffffffffffffffffffffffffff1602179055508281600901819055507ff263b0b1302aee78f70f94296996d039ce00316678db6114046e3e0ae9c59f30828a8a8a898989604051808881526020018773ffffffffffffffffffffffffffffffffffffffff1673ffffffffffffffffffffffffffffffffffffffff16815260200186815260200180602001806020018573ffffffffffffffffffffffffffffffffffffffff1673ffffffffffffffffffffffffffffffffffffffff168152602001848152602001838103835287818151815260200191508051906020019080838360005b83811015611e43578082015181840152602081019050611e28565b50505050905090810190601f168015611e705780820380516001836020036101000a031916815260200191505b50838103825286818151815260200191508051906020019080838360005b83811015611ea9578082015181840152602081019050611e8e565b50505050905090810190601f168015611ed65780820380516001836020036101000a031916815260200191505b50995050505050505050505060405180910390a16001820160048190555081915050979650505050505050565b600080600386815481101515611f1557fe5b90600052602060002090600c02019050848484604051808473ffffffffffffffffffffffffffffffffffffffff1673ffffffffffffffffffffffffffffffffffffffff166c0100000000000000000000000002815260140183815260200182805190602001908083835b602083101515611fa45780518252602082019150602081019050602083039250611f7f565b6001836020036101000a038019825116818451168082178552505050505050905001935050505060405180910390206000191681600601546000191614915050949350505050565b6000809054906101000a900473ffffffffffffffffffffffffffffffffffffffff1673ffffffffffffffffffffffffffffffffffffffff163373ffffffffffffffffffffffffffffffffffffffff1614151561204757600080fd5b600073ffffffffffffffffffffffffffffffffffffffff168173ffffffffffffffffffffffffffffffffffffffff161415151561208357600080fd5b8073ffffffffffffffffffffffffffffffffffffffff166000809054906101000a900473ffffffffffffffffffffffffffffffffffffffff1673ffffffffffffffffffffffffffffffffffffffff167f8be0079c531659141344cd1fd0a4f28419497f9722a3daafe3b4186f6b6457e060405160405180910390a3806000806101000a81548173ffffffffffffffffffffffffffffffffffffffff021916908373ffffffffffffffffffffffffffffffffffffffff16021790555050565b81548183558181151161216857818360005260206000209182019101612167919061221f565b5b505050565b81548183558181151161219a57600c0281600c0283600052602060002091820191016121999190612279565b5b505050565b828054600181600116156101000203166002900490600052602060002090601f016020900481019282601f106121e057805160ff191683800117855561220e565b8280016001018555821561220e579182015b8281111561220d5782518255916020019190600101906121f2565b5b50905061221b9190612366565b5090565b61227691905b8082111561227257600080820160006101000a81549060ff02191690556000820160016101000a81549073ffffffffffffffffffffffffffffffffffffffff021916905550600101612225565b5090565b90565b61236391905b8082111561235f57600080820160006101000a81549073ffffffffffffffffffffffffffffffffffffffff021916905560018201600090556002820160006122c7919061238b565b60038201600090556004820160006101000a81549060ff02191690556004820160016101000a81549060ff021916905560058201600090556006820160009055600782016000612317919061238b565b6008820160006101000a81549073ffffffffffffffffffffffffffffffffffffffff02191690556009820160009055600a8201600061235691906123d3565b50600c0161227f565b5090565b90565b61238891905b8082111561238457600081600090555060010161236c565b5090565b90565b50805460018160011615610100020316600290046000825580601f106123b157506123d0565b601f0160209004906000526020600020908101906123cf9190612366565b5b50565b50805460008255906000526020600020908101906123f1919061221f565b505600a165627a7a723058205789555a04d5799335589e3341031420409f42bbc4a32a2d1fedd8c079f8dd3a002960606040526000600255336000806101000a81548173ffffffffffffffffffffffffffffffffffffffff021916908373ffffffffffffffffffffffffffffffffffffffff1602179055506118c2806100586000396000f300606060405260043610610078576000357c0100000000000000000000000000000000000000000000000000000000900463ffffffff16806319ca4a7e1461007d5780636d8236901461016957806377ac0c51146101de5780638da5cb5b14610207578063f2fde38b1461025c578063f6afad4714610295575b600080fd5b341561008857600080fd5b61009e6004808035906020019091905050610364565b604051808373ffffffffffffffffffffffffffffffffffffffff1673ffffffffffffffffffffffffffffffffffffffff168152602001806020018281038252838181546001816001161561010002031660029004815260200191508054600181600116156101000203166002900480156101595780601f1061012e57610100808354040283529160200191610159565b820191906000526020600020905b81548152906001019060200180831161013c57829003601f168201915b5050935050505060405180910390f35b341561017457600080fd5b6101c4600480803590602001908201803590602001908080601f016020809104026020016040519081016040528093929190818152602001838380828437820191505050505050919050506103b6565b604051808215151515815260200191505060405180910390f35b34156101e957600080fd5b6101f161070b565b6040518082815260200191505060405180910390f35b341561021257600080fd5b61021a610711565b604051808273ffffffffffffffffffffffffffffffffffffffff1673ffffffffffffffffffffffffffffffffffffffff16815260200191505060405180910390f35b341561026757600080fd5b610293600480803573ffffffffffffffffffffffffffffffffffffffff16906020019091905050610736565b005b34156102a057600080fd5b6102b6600480803590602001909190505061088b565b604051808373ffffffffffffffffffffffffffffffffffffffff1673ffffffffffffffffffffffffffffffffffffffff16815260200180602001828103825283818151815260200191508051906020019080838360005b8381101561032857808201518184015260208101905061030d565b50505050905090810190601f1680156103555780820380516001836020036101000a031916815260200191505b50935050505060405180910390f35b60018181548110151561037357fe5b90600052602060002090600202016000915090508060000160009054906101000a900473ffffffffffffffffffffffffffffffffffffffff169080600101905082565b6000806000806000809054906101000a900473ffffffffffffffffffffffffffffffffffffffff1673ffffffffffffffffffffffffffffffffffffffff163373ffffffffffffffffffffffffffffffffffffffff1614151561041757600080fd5b60016002600082825401925050819055508461043161099b565b8080602001828103825283818151815260200191508051906020019080838360005b8381101561046e578082015181840152602081019050610453565b50505050905090810190601f16801561049b5780820380516001836020036101000a031916815260200191505b5092505050604051809103906000f08015156104b657600080fd5b925060018080548060010182816104cd91906109ab565b9160005260206000209060020201600060408051908101604052808873ffffffffffffffffffffffffffffffffffffffff1681526020018a815250909190915060008201518160000160006101000a81548173ffffffffffffffffffffffffffffffffffffffff021916908373ffffffffffffffffffffffffffffffffffffffff16021790555060208201518160010190805190602001906105709291906109dd565b5050500391507f6ac3c5a2c48f664fe17caf4d2a2ddc8e7b148eec95fa8c7fb964201763634097838684604051808473ffffffffffffffffffffffffffffffffffffffff1673ffffffffffffffffffffffffffffffffffffffff16815260200180602001838152602001828103825284818151815260200191508051906020019080838360005b838110156106125780820151818401526020810190506105f7565b50505050905090810190601f16801561063f5780820380516001836020036101000a031916815260200191505b5094505050505060405180910390a18290508073ffffffffffffffffffffffffffffffffffffffff1663f2fde38b336040518263ffffffff167c0100000000000000000000000000000000000000000000000000000000028152600401808273ffffffffffffffffffffffffffffffffffffffff1673ffffffffffffffffffffffffffffffffffffffff168152602001915050600060405180830381600087803b15156106eb57600080fd5b6102c65a03f115156106fc57600080fd5b50505060019350505050919050565b60025481565b6000809054906101000a900473ffffffffffffffffffffffffffffffffffffffff1681565b6000809054906101000a900473ffffffffffffffffffffffffffffffffffffffff1673ffffffffffffffffffffffffffffffffffffffff163373ffffffffffffffffffffffffffffffffffffffff1614151561079157600080fd5b600073ffffffffffffffffffffffffffffffffffffffff168173ffffffffffffffffffffffffffffffffffffffff16141515156107cd57600080fd5b8073ffffffffffffffffffffffffffffffffffffffff166000809054906101000a900473ffffffffffffffffffffffffffffffffffffffff1673ffffffffffffffffffffffffffffffffffffffff167f8be0079c531659141344cd1fd0a4f28419497f9722a3daafe3b4186f6b6457e060405160405180910390a3806000806101000a81548173ffffffffffffffffffffffffffffffffffffffff021916908373ffffffffffffffffffffffffffffffffffffffff16021790555050565b6000610895610a5d565b6001838154811015156108a457fe5b906000526020600020906002020160000160009054906101000a900473ffffffffffffffffffffffffffffffffffffffff166001848154811015156108e557fe5b9060005260206000209060020201600101808054600181600116156101000203166002900480601f01602080910402602001604051908101604052809291908181526020018280546001816001161561010002031660029004801561098b5780601f106109605761010080835404028352916020019161098b565b820191906000526020600020905b81548152906001019060200180831161096e57829003601f168201915b5050505050905091509150915091565b604051610d6280610b3583390190565b8154818355818115116109d8576002028160020283600052602060002091820191016109d79190610a71565b5b505050565b828054600181600116156101000203166002900490600052602060002090601f016020900481019282601f10610a1e57805160ff1916838001178555610a4c565b82800160010185558215610a4c579182015b82811115610a4b578251825591602001919060010190610a30565b5b509050610a599190610ac7565b5090565b602060405190810160405280600081525090565b610ac491905b80821115610ac057600080820160006101000a81549073ffffffffffffffffffffffffffffffffffffffff0219169055600182016000610ab79190610aec565b50600201610a77565b5090565b90565b610ae991905b80821115610ae5576000816000905550600101610acd565b5090565b90565b50805460018160011615610100020316600290046000825580601f10610b125750610b31565b601f016020900490600052602060002090810190610b309190610ac7565b5b50560060606040526000600355341561001457600080fd5b604051610d62380380610d6283398101604052808051820191905050336000806101000a81548173ffffffffffffffffffffffffffffffffffffffff021916908373ffffffffffffffffffffffffffffffffffffffff160217905550806001908051906020019061008692919061008d565b5050610132565b828054600181600116156101000203166002900490600052602060002090601f016020900481019282601f106100ce57805160ff19168380011785556100fc565b828001600101855582156100fc579182015b828111156100fb5782518255916020019190600101906100e0565b5b509050610109919061010d565b5090565b61012f91905b8082111561012b576000816000905550600101610113565b5090565b90565b610c21806101416000396000f300606060405260043610610083576000357c0100000000000000000000000000000000000000000000000000000000900463ffffffff16806306fdde031461008857806316faae90146101165780631f16a57b1461020257806359e776d7146102d15780638da5cb5b146102fa578063d40287391461034f578063f2fde38b146103e3575b600080fd5b341561009357600080fd5b61009b61041c565b6040518080602001828103825283818151815260200191508051906020019080838360005b838110156100db5780820151818401526020810190506100c0565b50505050905090810190601f1680156101085780820380516001836020036101000a031916815260200191505b509250505060405180910390f35b341561012157600080fd5b61013760048080359060200190919050506104ba565b604051808373ffffffffffffffffffffffffffffffffffffffff1673ffffffffffffffffffffffffffffffffffffffff168152602001806020018281038252838181546001816001161561010002031660029004815260200191508054600181600116156101000203166002900480156101f25780601f106101c7576101008083540402835291602001916101f2565b820191906000526020600020905b8154815290600101906020018083116101d557829003601f168201915b5050935050505060405180910390f35b341561020d57600080fd5b610223600480803590602001909190505061050c565b604051808373ffffffffffffffffffffffffffffffffffffffff1673ffffffffffffffffffffffffffffffffffffffff16815260200180602001828103825283818151815260200191508051906020019080838360005b8381101561029557808201518184015260208101905061027a565b50505050905090810190601f1680156102c25780820380516001836020036101000a031916815260200191505b50935050505060405180910390f35b34156102dc57600080fd5b6102e461061c565b6040518082815260200191505060405180910390f35b341561030557600080fd5b61030d610622565b604051808273ffffffffffffffffffffffffffffffffffffffff1673ffffffffffffffffffffffffffffffffffffffff16815260200191505060405180910390f35b341561035a57600080fd5b6103c9600480803573ffffffffffffffffffffffffffffffffffffffff1690602001909190803590602001908201803590602001908080601f01602080910402602001604051908101604052809392919081815260200183838082843782019150505050505091905050610647565b604051808215151515815260200191505060405180910390f35b34156103ee57600080fd5b61041a600480803573ffffffffffffffffffffffffffffffffffffffff16906020019091905050610917565b005b60018054600181600116156101000203166002900480601f0160208091040260200160405190810160405280929190818152602001828054600181600116156101000203166002900480156104b25780601f10610487576101008083540402835291602001916104b2565b820191906000526020600020905b81548152906001019060200180831161049557829003601f168201915b505050505081565b6002818154811015156104c957fe5b90600052602060002090600202016000915090508060000160009054906101000a900473ffffffffffffffffffffffffffffffffffffffff169080600101905082565b6000610516610a6c565b60028381548110151561052557fe5b906000526020600020906002020160000160009054906101000a900473ffffffffffffffffffffffffffffffffffffffff1660028481548110151561056657fe5b9060005260206000209060020201600101808054600181600116156101000203166002900480601f01602080910402602001604051908101604052809291908181526020018280546001816001161561010002031660029004801561060c5780601f106105e15761010080835404028352916020019161060c565b820191906000526020600020905b8154815290600101906020018083116105ef57829003601f168201915b5050505050905091509150915091565b60035481565b6000809054906101000a900473ffffffffffffffffffffffffffffffffffffffff1681565b6000806000809054906101000a900473ffffffffffffffffffffffffffffffffffffffff1673ffffffffffffffffffffffffffffffffffffffff163373ffffffffffffffffffffffffffffffffffffffff161415156106a557600080fd5b60016003600082825401925050819055506001600280548060010182816106cc9190610a80565b9160005260206000209060020201600060408051908101604052808973ffffffffffffffffffffffffffffffffffffffff16815260200188815250909190915060008201518160000160006101000a81548173ffffffffffffffffffffffffffffffffffffffff021916908373ffffffffffffffffffffffffffffffffffffffff160217905550602082015181600101908051906020019061076f929190610ab2565b5050500390507f100101c0af3b580996e5e0f9290fe11a1b4aaf029fe305e99e9fbbaca54088d4306001838787604051808673ffffffffffffffffffffffffffffffffffffffff1673ffffffffffffffffffffffffffffffffffffffff168152602001806020018581526020018473ffffffffffffffffffffffffffffffffffffffff1673ffffffffffffffffffffffffffffffffffffffff168152602001806020018381038352878181546001816001161561010002031660029004815260200191508054600181600116156101000203166002900480156108935780601f1061086857610100808354040283529160200191610893565b820191906000526020600020905b81548152906001019060200180831161087657829003601f168201915b5050838103825284818151815260200191508051906020019080838360005b838110156108cd5780820151818401526020810190506108b2565b50505050905090810190601f1680156108fa5780820380516001836020036101000a031916815260200191505b5097505050505050505060405180910390a1600191505092915050565b6000809054906101000a900473ffffffffffffffffffffffffffffffffffffffff1673ffffffffffffffffffffffffffffffffffffffff163373ffffffffffffffffffffffffffffffffffffffff1614151561097257600080fd5b600073ffffffffffffffffffffffffffffffffffffffff168173ffffffffffffffffffffffffffffffffffffffff16141515156109ae57600080fd5b8073ffffffffffffffffffffffffffffffffffffffff166000809054906101000a900473ffffffffffffffffffffffffffffffffffffffff1673ffffffffffffffffffffffffffffffffffffffff167f8be0079c531659141344cd1fd0a4f28419497f9722a3daafe3b4186f6b6457e060405160405180910390a3806000806101000a81548173ffffffffffffffffffffffffffffffffffffffff021916908373ffffffffffffffffffffffffffffffffffffffff16021790555050565b602060405190810160405280600081525090565b815481835581811511610aad57600202816002028360005260206000209182019101610aac9190610b32565b5b505050565b828054600181600116156101000203166002900490600052602060002090601f016020900481019282601f10610af357805160ff1916838001178555610b21565b82800160010185558215610b21579182015b82811115610b20578251825591602001919060010190610b05565b5b509050610b2e9190610b88565b5090565b610b8591905b80821115610b8157600080820160006101000a81549073ffffffffffffffffffffffffffffffffffffffff0219169055600182016000610b789190610bad565b50600201610b38565b5090565b90565b610baa91905b80821115610ba6576000816000905550600101610b8e565b5090565b90565b50805460018160011615610100020316600290046000825580601f10610bd35750610bf2565b601f016020900490600052602060002090810190610bf19190610b88565b5b505600a165627a7a7230582066aa285cffebae665dade65a53df437a4fa67d2ee0e72b8a4552d018090a868f0029a165627a7a7230582066aec5636f0c3d09a17a9f3e6d84d4f6bb37b890fac0a85a68479c6e6bea3f910029",
  "source": "pragma solidity ^0.4.18;\n\nimport \"zeppelin-solidity/contracts/ownership/Ownable.sol\";\nimport \"./SimpleDatabaseFactory.sol\";\n\ncontract tokenRecipient {\n    event receivedEther(address sender, uint amount);\n    event receivedTokens(address _from, uint256 _value, address _token, bytes _extraData);\n\n    function receiveApproval(address _from, uint256 _value, address _token, bytes _extraData) public {\n        Token t = Token(_token);\n        require(t.transferFrom(_from, this, _value));\n        receivedTokens(_from, _value, _token, _extraData);\n    }\n\n    function () payable public{\n        receivedEther(msg.sender, msg.value);\n    }\n}\n\n// Interfaces\ncontract Token {\n    mapping (address => uint256) public balanceOf;\n    function transferFrom(address _from, address _to, uint256 _value) public returns (bool success);\n}\n\ncontract Database {\n    function addShard(address _curator, string _ipfsHash) public returns (bool);\n    \n    function getShard(uint _i) public view returns (address, string);\n}\n\n/**\n * The shareholder association contract itself\n */\ncontract DatabaseAssociation is Ownable, tokenRecipient {\n\n    uint public minimumQuorum;\n    uint public debatingPeriodInMinutes;\n    Proposal[] public proposals;\n    uint public numProposals;\n    Token public sharesTokenAddress;\n    SimpleDatabaseFactory public databaseFactory;\n\n    event ProposalAdded(uint proposalID, address recipient, uint amount, string description, string argument, address curator, uint state);\n    event Voted(uint proposalID, bool position, address voter);\n    event ProposalTallied(uint proposalID, uint result, uint quorum, bool active);\n    event ChangeOfRules(uint newMinimumQuorum, uint newDebatingPeriodInMinutes, address newSharesTokenAddress);\n    event NewFactory(address newDatabaseFactory);\n\n\n    struct Proposal {\n        address recipient;\n        uint amount;\n        string description;\n        uint votingDeadline;\n        bool executed;\n        bool proposalPassed;\n        uint numberOfVotes;\n        bytes32 proposalHash;\n        string argument; //either name or ipfsHash\n        address curator; //address for shard adder\n        uint state;\n        Vote[] votes;\n        mapping (address => bool) voted;\n    }\n\n    struct Vote {\n        bool inSupport;\n        address voter;\n    }\n\n    // Modifier that allows only shareholders to vote and create new proposals\n    modifier onlyShareholders {\n        require(sharesTokenAddress.balanceOf(msg.sender) > 0);\n        _;\n    }\n\n    /**\n     * Constructor function\n     *\n     * First time setup\n     */\n    function DatabaseAssociation(Token sharesAddress, uint minimumSharesToPassAVote, uint minutesForDebate) payable public {\n        changeVotingRules(sharesAddress, minimumSharesToPassAVote, minutesForDebate);\n        databaseFactory = new SimpleDatabaseFactory(); //create new factory\n        NewFactory(databaseFactory); //throw event!\n    }\n\n    /**\n     * Change voting rules\n     *\n     * Make so that proposals need tobe discussed for at least `minutesForDebate/60` hours\n     * and all voters combined must own more than `minimumSharesToPassAVote` shares of token `sharesAddress` to be executed\n     *\n     * @param sharesAddress token address\n     * @param minimumSharesToPassAVote proposal can vote only if the sum of shares held by all voters exceed this number\n     * @param minutesForDebate the minimum amount of delay between when a proposal is made and when it can be executed\n     */\n    function changeVotingRules(Token sharesAddress, uint minimumSharesToPassAVote, uint minutesForDebate) onlyOwner public{\n        sharesTokenAddress = Token(sharesAddress);\n        if (minimumSharesToPassAVote == 0 ) minimumSharesToPassAVote = 1;\n        minimumQuorum = minimumSharesToPassAVote;\n        debatingPeriodInMinutes = minutesForDebate;\n        ChangeOfRules(minimumQuorum, debatingPeriodInMinutes, sharesTokenAddress);\n    }\n    \n    /**\n     * Add Proposal\n     *\n     * Propose to send `weiAmount / 1e18` ether to `beneficiary` for `jobDescription`. `transactionBytecode ? Contains : Does not contain` code.\n     *\n     * @param beneficiary who to send the ether to\n     * @param weiAmount amount of ether to send, in wei\n     * @param jobDescription Description of job\n     * @param transactionBytecode bytecode of transaction\n     */\n    function newProposal (\n        address beneficiary,\n        uint weiAmount,\n        string jobDescription,\n        bytes transactionBytecode,\n        string argument,\n        address curator, //annoying but we need it to store the data owner\n        uint state // use to save state (create database, shards etc)\n    ) public\n        //onlyShareholders\n        returns (uint proposalID)\n    {\n        proposalID = proposals.length++;\n        Proposal storage p = proposals[proposalID];\n        p.recipient = beneficiary;\n        p.amount = weiAmount;\n        p.description = jobDescription;\n        p.proposalHash = keccak256(beneficiary, weiAmount, transactionBytecode);\n        p.votingDeadline = now + debatingPeriodInMinutes * 1 minutes;\n        p.executed = false;\n        p.proposalPassed = false;\n        p.numberOfVotes = 0;\n        p.argument = argument; //argument for creating database (name) or ipfsHash\n        p.curator = curator; //argument for curator but we can check for address(0) !\n        p.state = state;\n        ProposalAdded(proposalID, beneficiary, weiAmount, jobDescription, argument, curator, state);\n        numProposals = proposalID+1;\n\n        return proposalID;\n    }\n\n    /**\n     * Add proposal in Ether\n     *\n     * Propose to send `etherAmount` ether to `beneficiary` for `jobDescription`. `transactionBytecode ? Contains : Does not contain` code.\n     * This is a convenience function to use if the amount to be given is in round number of ether units.\n     *\n     * @param beneficiary who to send the ether to\n     * @param etherAmount amount of ether to send\n     * @param jobDescription Description of job\n     * @param transactionBytecode bytecode of transaction\n     */\n    function newProposalInEther(\n        address beneficiary,\n        uint etherAmount,\n        string jobDescription,\n        bytes transactionBytecode,\n        string argument,\n        address curator\n    ) public\n        //onlyShareholders\n        returns (uint proposalID)\n    {\n        return newProposal(beneficiary, etherAmount * 1 ether, jobDescription, transactionBytecode, argument, curator, 0);\n    }\n    \n    /**\n      * Add new database\n      */\n    function proposeAddDatabase(\n        string jobDescription,\n        string name\n    ) public\n        returns (uint proposalID)\n    {\n        return newProposal(databaseFactory, 0, jobDescription, \"\", name,\n                           address(0), 1);\n    }\n    \n    /**\n      * Add Shard\n      */\n    function proposeAddShard(\n        address database,\n        string jobDescription,\n        string ipfsHash,\n        address curator\n    ) public \n        returns (uint proposalID)\n    {\n        return newProposal(database, 0, jobDescription, \"\", ipfsHash, curator, 2);\n    }\n\n    /**\n     * Check if a proposal code matches\n     *\n     * @param proposalNumber ID number of the proposal to query\n     * @param beneficiary who to send the ether to\n     * @param weiAmount amount of ether to send\n     * @param transactionBytecode bytecode of transaction\n     */\n    function checkProposalCode(\n        uint proposalNumber,\n        address beneficiary,\n        uint weiAmount,\n        bytes transactionBytecode\n    ) public\n        constant\n        returns (bool codeChecksOut)\n    {\n        Proposal storage p = proposals[proposalNumber];\n        return p.proposalHash == keccak256(beneficiary, weiAmount, transactionBytecode);\n    }\n\n    /**\n     * Log a vote for a proposal\n     *\n     * Vote `supportsProposal? in support of : against` proposal #`proposalNumber`\n     *\n     * @param proposalNumber number of proposal\n     * @param supportsProposal either in favor or against it\n     */\n    function vote(\n        uint proposalNumber,\n        bool supportsProposal\n    ) public\n        onlyShareholders\n        returns (uint voteID)\n    {\n        Proposal storage p = proposals[proposalNumber];\n        require(p.voted[msg.sender] != true);\n\n        voteID = p.votes.length++;\n        p.votes[voteID] = Vote({inSupport: supportsProposal, voter: msg.sender});\n        p.voted[msg.sender] = true;\n        p.numberOfVotes = voteID +1;\n        Voted(proposalNumber,  supportsProposal, msg.sender);\n        return voteID;\n    }\n\n    /**\n     * Finish vote\n     *\n     * Count the votes proposal #`proposalNumber` and execute it if approved\n     *\n     * @param proposalNumber proposal number\n     * @param transactionBytecode optional: if the transaction contained a bytecode, you need to send it\n     */\n    function executeProposal(uint proposalNumber, bytes transactionBytecode) public {\n        Proposal storage p = proposals[proposalNumber];\n\n        require(now > p.votingDeadline                                             // If it is past the voting deadline\n            && !p.executed                                                          // and it has not already been executed\n            && p.proposalHash == keccak256(p.recipient, p.amount, transactionBytecode)); // and the supplied code matches the proposal...\n\n\n        // ...then tally the results\n        uint quorum = 0;\n        uint yea = 0;\n        uint nay = 0;\n\n        for (uint i = 0; i <  p.votes.length; ++i) {\n            Vote storage v = p.votes[i];\n            uint voteWeight = sharesTokenAddress.balanceOf(v.voter);\n            quorum += voteWeight;\n            if (v.inSupport) {\n                yea += voteWeight;\n            } else {\n                nay += voteWeight;\n            }\n        }\n\n        require(quorum >= minimumQuorum); // Check if a minimum quorum has been reached\n\n        if (yea > nay) {\n            // Proposal passed; execute the transaction\n\n            p.executed = true;\n            if (p.state == 1) {\n                require(databaseFactory.createDatabase(p.argument));\n            } else if (p.state == 2) {\n                Database db = Database(p.recipient);\n                require(db.addShard(p.curator, p.argument));\n            } else {\n                require(p.recipient.call.value(p.amount)(transactionBytecode));\n            }\n\n            p.proposalPassed = true;\n        } else {\n            // Proposal failed\n            p.proposalPassed = false;\n        }\n\n        // Fire Events\n        ProposalTallied(proposalNumber, yea - nay, quorum, p.proposalPassed);\n    }\n}\n\n",
  "sourcePath": "/Users/david/Projects/databright/data_market/contracts/DatabaseAssociation.sol",
  "compiler": {
    "name": "solc",
    "version": "0.4.19+commit.c4cbbb05.Emscripten.clang"
  },
  "schemaVersion": "1.0.1",
  "updatedAt": "2018-02-16T22:00:33.278Z"
}