{
  "contractName": "tokenRecipient",
  "abi": [
    {
      "constant": false,
      "inputs": [
        {
          "name": "_from",
          "type": "address"
        },
        {
          "name": "_value",
          "type": "uint256"
        },
        {
          "name": "_token",
          "type": "address"
        },
        {
          "name": "_extraData",
          "type": "bytes"
        }
      ],
      "name": "receiveApproval",
      "outputs": [],
      "payable": false,
      "stateMutability": "nonpayable",
      "type": "function"
    },
    {
      "payable": true,
      "stateMutability": "payable",
      "type": "fallback"
    },
    {
      "anonymous": false,
      "inputs": [
        {
          "indexed": false,
          "name": "sender",
          "type": "address"
        },
        {
          "indexed": false,
          "name": "amount",
          "type": "uint256"
        }
      ],
      "name": "receivedEther",
      "type": "event"
    },
    {
      "anonymous": false,
      "inputs": [
        {
          "indexed": false,
          "name": "_from",
          "type": "address"
        },
        {
          "indexed": false,
          "name": "_value",
          "type": "uint256"
        },
        {
          "indexed": false,
          "name": "_token",
          "type": "address"
        },
        {
          "indexed": false,
          "name": "_extraData",
          "type": "bytes"
        }
      ],
      "name": "receivedTokens",
      "type": "event"
    }
  ],
  "bytecode": "0x6060604052341561000f57600080fd5b61039b8061001e6000396000f300606060405260043610610041576000357c0100000000000000000000000000000000000000000000000000000000900463ffffffff1680638f4ffcb1146100ae575b7fa398b89ba344a0b23a0b9de53db298b2a1a868b396c1878b7e9dcbafecd49b133334604051808373ffffffffffffffffffffffffffffffffffffffff1673ffffffffffffffffffffffffffffffffffffffff1681526020018281526020019250505060405180910390a1005b34156100b957600080fd5b610150600480803573ffffffffffffffffffffffffffffffffffffffff1690602001909190803590602001909190803573ffffffffffffffffffffffffffffffffffffffff1690602001909190803590602001908201803590602001908080601f01602080910402602001604051908101604052809392919081815260200183838082843782019150505050505091905050610152565b005b60008290508073ffffffffffffffffffffffffffffffffffffffff166323b872dd8630876000604051602001526040518463ffffffff167c0100000000000000000000000000000000000000000000000000000000028152600401808473ffffffffffffffffffffffffffffffffffffffff1673ffffffffffffffffffffffffffffffffffffffff1681526020018373ffffffffffffffffffffffffffffffffffffffff1673ffffffffffffffffffffffffffffffffffffffff1681526020018281526020019350505050602060405180830381600087803b151561023657600080fd5b6102c65a03f1151561024757600080fd5b50505060405180519050151561025c57600080fd5b7f0eeb71b8926d7ed8f47a2cedf6b9b204e2001344c7fa20c696c9f06ea7c413c685858585604051808573ffffffffffffffffffffffffffffffffffffffff1673ffffffffffffffffffffffffffffffffffffffff1681526020018481526020018373ffffffffffffffffffffffffffffffffffffffff1673ffffffffffffffffffffffffffffffffffffffff16815260200180602001828103825283818151815260200191508051906020019080838360005b8381101561032b578082015181840152602081019050610310565b50505050905090810190601f1680156103585780820380516001836020036101000a031916815260200191505b509550505050505060405180910390a150505050505600a165627a7a723058208427e92c4e01138934c8af513e852f148e3d7247ac24a2ab6ff996ec0b82f5f60029",
  "source": "pragma solidity ^0.4.18;\n\nimport \"zeppelin-solidity/contracts/ownership/Ownable.sol\";\nimport \"./SimpleDatabaseFactory.sol\";\n\ncontract tokenRecipient {\n    event receivedEther(address sender, uint amount);\n    event receivedTokens(address _from, uint256 _value, address _token, bytes _extraData);\n\n    function receiveApproval(address _from, uint256 _value, address _token, bytes _extraData) public {\n        Token t = Token(_token);\n        require(t.transferFrom(_from, this, _value));\n        receivedTokens(_from, _value, _token, _extraData);\n    }\n\n    function () payable public{\n        receivedEther(msg.sender, msg.value);\n    }\n}\n\n// Interfaces\ncontract Token {\n    mapping (address => uint256) public balanceOf;\n    function transferFrom(address _from, address _to, uint256 _value) public returns (bool success);\n}\n\ncontract Database {\n    function addShard(address _curator, string _ipfsHash) public returns (bool);\n    \n    function getShard(uint _i) public view returns (address, string);\n}\n\n/**\n * The shareholder association contract itself\n */\ncontract DatabaseAssociation is Ownable, tokenRecipient {\n\n    uint public minimumQuorum;\n    uint public debatingPeriodInMinutes;\n    Proposal[] public proposals;\n    uint public numProposals;\n    Token public sharesTokenAddress;\n    SimpleDatabaseFactory public databaseFactory;\n\n    event ProposalAdded(uint proposalID, address recipient, uint amount, string description, string argument, address curator, uint state);\n    event Voted(uint proposalID, bool position, address voter);\n    event ProposalTallied(uint proposalID, uint result, uint quorum, bool active);\n    event ChangeOfRules(uint newMinimumQuorum, uint newDebatingPeriodInMinutes, address newSharesTokenAddress);\n    event NewFactory(address newDatabaseFactory);\n\n\n    struct Proposal {\n        address recipient;\n        uint amount;\n        string description;\n        uint votingDeadline;\n        bool executed;\n        bool proposalPassed;\n        uint numberOfVotes;\n        bytes32 proposalHash;\n        string argument; //either name or ipfsHash\n        address curator; //address for shard adder\n        uint state;\n        Vote[] votes;\n        mapping (address => bool) voted;\n    }\n\n    struct Vote {\n        bool inSupport;\n        address voter;\n    }\n\n    // Modifier that allows only shareholders to vote and create new proposals\n    modifier onlyShareholders {\n        require(sharesTokenAddress.balanceOf(msg.sender) > 0);\n        _;\n    }\n\n    /**\n     * Constructor function\n     *\n     * First time setup\n     */\n    function DatabaseAssociation(Token sharesAddress, uint minimumSharesToPassAVote, uint minutesForDebate) payable public {\n        changeVotingRules(sharesAddress, minimumSharesToPassAVote, minutesForDebate);\n        databaseFactory = new SimpleDatabaseFactory(); //create new factory\n        NewFactory(databaseFactory); //throw event!\n    }\n\n    /**\n     * Change voting rules\n     *\n     * Make so that proposals need tobe discussed for at least `minutesForDebate/60` hours\n     * and all voters combined must own more than `minimumSharesToPassAVote` shares of token `sharesAddress` to be executed\n     *\n     * @param sharesAddress token address\n     * @param minimumSharesToPassAVote proposal can vote only if the sum of shares held by all voters exceed this number\n     * @param minutesForDebate the minimum amount of delay between when a proposal is made and when it can be executed\n     */\n    function changeVotingRules(Token sharesAddress, uint minimumSharesToPassAVote, uint minutesForDebate) onlyOwner public{\n        sharesTokenAddress = Token(sharesAddress);\n        if (minimumSharesToPassAVote == 0 ) minimumSharesToPassAVote = 1;\n        minimumQuorum = minimumSharesToPassAVote;\n        debatingPeriodInMinutes = minutesForDebate;\n        ChangeOfRules(minimumQuorum, debatingPeriodInMinutes, sharesTokenAddress);\n    }\n    \n    /**\n     * Add Proposal\n     *\n     * Propose to send `weiAmount / 1e18` ether to `beneficiary` for `jobDescription`. `transactionBytecode ? Contains : Does not contain` code.\n     *\n     * @param beneficiary who to send the ether to\n     * @param weiAmount amount of ether to send, in wei\n     * @param jobDescription Description of job\n     * @param transactionBytecode bytecode of transaction\n     */\n    function newProposal (\n        address beneficiary,\n        uint weiAmount,\n        string jobDescription,\n        bytes transactionBytecode,\n        string argument,\n        address curator, //annoying but we need it to store the data owner\n        uint state // use to save state (create database, shards etc)\n    ) public\n        //onlyShareholders\n        returns (uint proposalID)\n    {\n        proposalID = proposals.length++;\n        Proposal storage p = proposals[proposalID];\n        p.recipient = beneficiary;\n        p.amount = weiAmount;\n        p.description = jobDescription;\n        p.proposalHash = keccak256(beneficiary, weiAmount, transactionBytecode);\n        p.votingDeadline = now + debatingPeriodInMinutes * 1 minutes;\n        p.executed = false;\n        p.proposalPassed = false;\n        p.numberOfVotes = 0;\n        p.argument = argument; //argument for creating database (name) or ipfsHash\n        p.curator = curator; //argument for curator but we can check for address(0) !\n        p.state = state;\n        ProposalAdded(proposalID, beneficiary, weiAmount, jobDescription, argument, curator, state);\n        numProposals = proposalID+1;\n\n        return proposalID;\n    }\n\n    /**\n     * Add proposal in Ether\n     *\n     * Propose to send `etherAmount` ether to `beneficiary` for `jobDescription`. `transactionBytecode ? Contains : Does not contain` code.\n     * This is a convenience function to use if the amount to be given is in round number of ether units.\n     *\n     * @param beneficiary who to send the ether to\n     * @param etherAmount amount of ether to send\n     * @param jobDescription Description of job\n     * @param transactionBytecode bytecode of transaction\n     */\n    function newProposalInEther(\n        address beneficiary,\n        uint etherAmount,\n        string jobDescription,\n        bytes transactionBytecode,\n        string argument,\n        address curator\n    ) public\n        //onlyShareholders\n        returns (uint proposalID)\n    {\n        return newProposal(beneficiary, etherAmount * 1 ether, jobDescription, transactionBytecode, argument, curator, 0);\n    }\n    \n    /**\n      * Add new database\n      */\n    function proposeAddDatabase(\n        string jobDescription,\n        string name\n    ) public\n        returns (uint proposalID)\n    {\n        return newProposal(databaseFactory, 0, jobDescription, \"\", name,\n                           address(0), 1);\n    }\n    \n    /**\n      * Add Shard\n      */\n    function proposeAddShard(\n        address database,\n        string jobDescription,\n        string ipfsHash,\n        address curator\n    ) public \n        returns (uint proposalID)\n    {\n        return newProposal(database, 0, jobDescription, \"\", ipfsHash, curator, 2);\n    }\n\n    /**\n     * Check if a proposal code matches\n     *\n     * @param proposalNumber ID number of the proposal to query\n     * @param beneficiary who to send the ether to\n     * @param weiAmount amount of ether to send\n     * @param transactionBytecode bytecode of transaction\n     */\n    function checkProposalCode(\n        uint proposalNumber,\n        address beneficiary,\n        uint weiAmount,\n        bytes transactionBytecode\n    ) public\n        constant\n        returns (bool codeChecksOut)\n    {\n        Proposal storage p = proposals[proposalNumber];\n        return p.proposalHash == keccak256(beneficiary, weiAmount, transactionBytecode);\n    }\n\n    /**\n     * Log a vote for a proposal\n     *\n     * Vote `supportsProposal? in support of : against` proposal #`proposalNumber`\n     *\n     * @param proposalNumber number of proposal\n     * @param supportsProposal either in favor or against it\n     */\n    function vote(\n        uint proposalNumber,\n        bool supportsProposal\n    ) public\n        onlyShareholders\n        returns (uint voteID)\n    {\n        Proposal storage p = proposals[proposalNumber];\n        require(p.voted[msg.sender] != true);\n\n        voteID = p.votes.length++;\n        p.votes[voteID] = Vote({inSupport: supportsProposal, voter: msg.sender});\n        p.voted[msg.sender] = true;\n        p.numberOfVotes = voteID +1;\n        Voted(proposalNumber,  supportsProposal, msg.sender);\n        return voteID;\n    }\n\n    /**\n     * Finish vote\n     *\n     * Count the votes proposal #`proposalNumber` and execute it if approved\n     *\n     * @param proposalNumber proposal number\n     * @param transactionBytecode optional: if the transaction contained a bytecode, you need to send it\n     */\n    function executeProposal(uint proposalNumber, bytes transactionBytecode) public {\n        Proposal storage p = proposals[proposalNumber];\n\n        require(now > p.votingDeadline                                             // If it is past the voting deadline\n            && !p.executed                                                          // and it has not already been executed\n            && p.proposalHash == keccak256(p.recipient, p.amount, transactionBytecode)); // and the supplied code matches the proposal...\n\n\n        // ...then tally the results\n        uint quorum = 0;\n        uint yea = 0;\n        uint nay = 0;\n\n        for (uint i = 0; i <  p.votes.length; ++i) {\n            Vote storage v = p.votes[i];\n            uint voteWeight = sharesTokenAddress.balanceOf(v.voter);\n            quorum += voteWeight;\n            if (v.inSupport) {\n                yea += voteWeight;\n            } else {\n                nay += voteWeight;\n            }\n        }\n\n        require(quorum >= minimumQuorum); // Check if a minimum quorum has been reached\n\n        if (yea > nay) {\n            // Proposal passed; execute the transaction\n\n            p.executed = true;\n            if (p.state == 1) {\n                require(databaseFactory.createDatabase(p.argument));\n            } else if (p.state == 2) {\n                Database db = Database(p.recipient);\n                require(db.addShard(p.curator, p.argument));\n            } else {\n                require(p.recipient.call.value(p.amount)(transactionBytecode));\n            }\n\n            p.proposalPassed = true;\n        } else {\n            // Proposal failed\n            p.proposalPassed = false;\n        }\n\n        // Fire Events\n        ProposalTallied(proposalNumber, yea - nay, quorum, p.proposalPassed);\n    }\n}\n\n",
  "sourcePath": "/Users/david/Projects/blockchain/etherDB/contracts/DatabaseAssociation.sol",
  "compiler": {
    "name": "solc",
    "version": "0.4.18+commit.9cf6e910.Emscripten.clang"
  },
  "schemaVersion": "1.0.1",
  "updatedAt": "2018-01-10T03:01:53.470Z"
}